:02000004C0DE5C
:1000000070B58CB0044662B600F06CFD6D462846B3
:1000100001F056F9A88585B26846002D0DD100F093
:1000200049FF0A9000F00BFF0D281ED2002C1FD1B3
:1000300000F04AFD00200CB070BD002686850A98AD
:1000400000F038FF1448854201D0072D07D18320E6
:1000500040002168814202D16068342146540F4833
:100060007844294600F064FD0BE0FF2000F004FF17
:10007000206883214900F931884202D0616800F08C
:10008000E9FC00F00FFF6946884202D10A9800F0AF
:1000900011FF00F0E9FEC046026500003F140000B9
:1000A000F8B501290AD10478302C07D1022B1AD3D4
:1000B00000205070302010700120F8BD069F8F4244
:1000C0000ED28D1C9D420ED8CD1B134606460097BE
:1000D000B9420AD034781C705B1C761C7F1CF7E791
:1000E000FD1C9D4212D90020F8BD009B002B2B4621
:1000F00002D02E2353556B1C4019D61800242F19FB
:100100008F4211D2075D3755641CF8E72E235370D8
:10011000302515703C467E1AB31C971C002E05D066
:100120003D707F1C761EF9E718190AE015190226A2
:10013000711A022904D006786E54401C491CF8E755
:1001400060180021115483420AD200291C4600D0B5
:100150000C46D15C302900D000245B1C2146F2E71C
:100160000120002906D000235354491E545C2E2C34
:1001700000D15354F8BDD4D4F0B58BB001922029EE
:1001800017D80E460746009303AD20242846214683
:1001900000F052FFA81B20303946324600F052FFD3
:1001A0002846214600F050F8002804D0009A022A80
:1001B00030D2002642E00020009B202805D003A971
:1001C0000A5A52BA0A52801CF7E7029303A8202168
:1001D00000F03AF80646002823D1029800282BD0D8
:1001E00000263046202E0DD003AFB95B0004441822
:1001F0000A252046294600F069FEB8534543601B96
:10020000B61CEFE730210843029A521E0199029270
:100210008854DBE70B497944019801F06BF801261B
:100220000CE0019D029AA9180098841A28462246DB
:1002300000F00CFF00202855701E864130460BB0A0
:10024000F0BDC0464412000010B500231A46994282
:1002500003D0845C531C002CF8D08A4201D20020C9
:1002600010BD012010BDF0B59DB0039302920C4665
:10027000054604AF64263846314600F0DDFE2846C8
:1002800021463A463346FFF777FF00282ED0239EBB
:10029000229D04A8642101F053F801900B210398DA
:1002A00001F04EF80446C7B2B742324600D83A468B
:1002B0002846039900F0C6FE002F04D02020E85500
:1002C000601CC0B200E00020029900912A18C043CF
:1002D00083190198C1B204A8FFF7E2FE002805D0F7
:1002E0007019401E002101701DB0F0BD072000F004
:1002F000FFFBD4D4F8B50446022000906077606814
:10030000A5680168A5311D48784400F041F82E46E3
:1003100040361B4979441422304600F0A3FE2F4694
:100320007E37002805D017487844314600F030F871
:1003300006E01220787038780121014339700026D8
:10034000E6605435104979441422284600F08AFEAC
:10035000002806D00D487844294600F019F8009985
:1003600006E01220B87038780099084338700025EC
:100370000420A07721772561F8BDC046D311000085
:1003800084130000F7110000521300000611000052
:1003900070B50C4600F0CCFB0026074D7D44142EB2
:1003A00005D0A15D284600F0C3FB761CF7E70348A3
:1003B000784400F0BDFB70BD821000008911000080
:1003C00070B5044600780126062807D120698528E3
:1003D00006D81F48784400F0ABFB0026667070BD5D
:1003E000E5688621284600F027FE60690178090645
:1003F000427812045118827812028918C0780818BD
:1004000084350021134A7A440629E7D013688342D1
:1004100002D0121D491CF7E769700529DED8C8B261
:1004200000280BD0042807D0022805D0032801D0CB
:10043000012807D1022002E0002000E003202870FC
:100440000426CBE70448784400F072FBC5E7C046B9
:10045000940F0000321200008B11000070B50546A9
:100460008468C2683B487844202100F081F8042069
:1004700028758520215C26468436042915D001295B
:100480000BD0022922D0032907D000292CD13178A2
:10049000052943D03048784428E0307805283DD0FD
:1004A000032826D0022833D12BE03078052835D018
:1004B000012834D0022824D003281AD0002827D1BC
:1004C0002846214600F06EF8012041E030780528EA
:1004D00024D0022815D003280BD0002818D1284694
:1004E000214600F05FF832E02048784400F020FB1D
:1004F00012E0E96820342022204600F0A3FD052008
:1005000026E0E9682022204600F09CFD03201FE041
:100510001248784400F00CFB0020287570BD54345C
:100520001421204600F088FDE868C07F002802D032
:100530000B49794401E00B4979441422204600F02C
:1005400081FD094878441421224600F011F8022068
:10055000307070BD480F0000E40F0000BE0E0000B8
:100560001E11000060110000E40E000002110000E6
:1005700070B514460D4600F0DBFA084E7E44002D9F
:1005800006D02178304600F0D3FA641C6D1EF6E7E1
:100590000348784400F0CCFA70BDC046A20E0000BB
:1005A000A70F000070B50E4605460C4640341421D6
:1005B000204600F041FDEA68154878442021FFF705
:1005C000D7FF8520305CE968042808D1C87F00285F
:1005D00009D01048784414250F4E7E4408E00C31B1
:1005E000142220460BE00D48784414250C4E7E441E
:1005F00029463246FFF7BCFF204631462A4600F026
:1006000021FD0848784414212246FFF7B1FF70BD50
:10061000A20F00005310000076100000CE0E000064
:10062000AA100000E10D0000F8B504468568C16815
:1006300002693A48784400F07BFA2E464036384941
:1006400079441422304600F00DFD2F467E370028F5
:100650000BD0E168002924D0C87F78702846683024
:1006600014310B2200F046FE01E012207870387839
:100670000121014339702E4654362C497944142205
:10068000304600F0EFFC002835D0216900291DD04C
:10069000C87FB870733514310B22284600F02AFE4B
:1006A0002BE0204979441422304600F0DBFC122173
:1006B00079700028DBD0284668301B4979440B222A
:1006C00000F018FE207D401C2075D4E718497944BD
:1006D0001422304600F0C6FC00280CD01220B8705E
:1006E0007335F87903280FD1124979440B22284633
:1006F00000F000FE05E01220B870387802210143B6
:10070000397004206075F8BD0B4979440B222846E6
:1007100000F0F0FD207D401C2075F2E7BE0D0000CA
:1007200058100000AC0F0000C60E00001C100000A6
:10073000820F0000D90E0000780E0000B0B504460C
:100740008568C06822691049794400F0D3FD85208E
:10075000295C032902D20D49794408E0042904D018
:1007600003290BD10A49794401E00B4979446069B6
:10077000A26900F0BFFD04202077B0BD0548784491
:1007800000F0D6F90020F7E7F60C0000C10C0000DD
:10079000E40C0000050E0000B70C0000F0B585B0B9
:1007A0000446C569406AA16A00F046FCE06A216B14
:1007B00000F042FC27462037042038752020265CB4
:1007C0007E200495285C03210140022305461D403C
:1007D00001220240012E15D0002E24D1484248416A
:1007E000CE1E714271410143501E82410A43701E68
:1007F0008641002900D07100002A00D11946002A44
:100800000FD018E04B424B41C81E414241410B43BF
:1008100000D10221501E8241134300D11946002B02
:1008200009D1002D07D18A48784400F081F90020D1
:10083000387505B0F0BD022967D0049D28467E308A
:10084000012932D00029EED10546049E4036684980
:1008500079441422304600F005FC002806D10498A3
:100860006830214610310B2200F044FD6149794483
:100870001422304600F0F6FB002806D104986830B8
:100880005D4979440B2200F035FDE979042956D001
:10089000012959D0022903D0032960D0002949D168
:1008A000606AA26A554979448FE003902E46543617
:1008B0005B4979441422304600F0D4FB002806D16D
:1008C00028467330214610310B2200F013FD5549A4
:1008D00079441422304600F0C5FB002806D1284692
:1008E0007330514979440B2200F004FD039EF179E5
:1008F000032917D2606AA26A4E49794400F0FAFCD3
:10090000284673304C49794449E0606AA26A4E49EE
:10091000794400F0EFFCE06A226B4C49794400F026
:10092000E9FC86E731D0042904D1606AA26A3F4914
:10093000794435E04348784400F0FAF877E7606A94
:10094000A26A3549794440E0606AA26A2C49794438
:1009500000F0D0FC049868302A49794434E0606A99
:10096000A26A2949794400F0C5FC60680168A53194
:1009700026487844142200F075FB0146049868303C
:1009800000291FD0234979441EE0606AA26A2B49DE
:10099000794400F0AFFC28467330294979440B2292
:1009A00000F0A8FCB278E06A216B00900191284623
:1009B0002030733520212B46FFF755FCE16A1C4897
:1009C000784412E0124979440B2200F093FC6A78D3
:1009D000E06A216B0090019104980346683320215E
:1009E000FFF741FCE16A0D48784400F0A1F820E7E8
:1009F000480E0000E20D00008B0D0000230D0000EA
:100A00007B0C00006B0B0000E60A0000F20C0000FB
:100A1000470C0000B30A00005D0A0000890B0000CB
:100A2000E60D0000800D0000290D0000630B0000A2
:100A3000520C0000990B0000070D0000030B000092
:100A4000270C00006F0C0000960A0000B10B00009C
:100A5000130D000080B5024683204000824217D06B
:100A600081204000824217D0FF20034604339A427F
:100A700016D041239B009A4216D0034606339A4271
:100A800016D00230824217D10846FFF799FC80BD8C
:100A90000846FFF783FE80BD0846FFF7DFFC80BDF8
:100AA0000846FFF727FC80BD0846FFF7BDFD80BD67
:100AB0000846FFF743FE80BD02487844114600F027
:100AC00037F880BD4F0A0000F8B50548784401901A
:100AD000012003900002029001A800F0B9F98FBD37
:100AE0008509000080B5002000F0E4F980BDD4D471
:100AF0000446724604487844214600F019F800F094
:100B0000D1F9214600F0E8FBF3090000BCB50C4622
:100B1000054601A881705F210170210A41700321FF
:100B200000F0B6F9A1B2284600F0B2F9BCBDD4D4A9
:100B300083B0F0B58EB013AC0EC4002800D163E1D1
:100B4000074613A80890012003903878002800D1A8
:100B50005AE13C460025002805D0252803D060191D
:100B600040786D1CF7E720462946FFF7CFFF67194D
:100B7000605D2528E9D16019471C002420260794D0
:100B80002246104639787F1C00222D29F9D00A46CA
:100B9000303A0A2A16D3252944D02A2904971ED090
:100BA0002E2927D138782A287DD1049840784828E2
:100BB00003D0732801D0682875D1049F7F1C0122BF
:100BC000089812E030220B465340234300D03246AF
:100BD0000A2363435C18303C16460246D1E7387856
:100BE000732860D102220898049F011D08910068B3
:100BF0000790C6E7482917D058291AD0632925D06D
:100C000064292DD0834A7A440692682937D0702906
:100C100005D0732936D0752949D0782943D101965A
:100C2000002008E0781E17E005947B49794406917E
:100C300026E0019601200090039F0898011D08916D
:100C4000006805900D90102006903CE00898011D6A
:100C5000089100680D900DA80121FFF757FF74E778
:100C60000898011D089100680D900A21002801963E
:100C7000069100D5B7E005900020009022E0059491
:100C8000039901E005940021089A131D0893C0B24E
:100C90001768002874D0012879D0022878D13878D4
:100CA000002800D1A6E061487844052164E001965F
:100CB0000898011D0891006805900D900020009093
:100CC0000A200690039F39465648784407900291BF
:100CD000C8193840261A751E0024069821463A463F
:100CE000234600F07FF94A1E9141059A904205D8AB
:100CF000002903D16D1E761E0746EDE702980028F5
:100D00000398019A09D1D1B200203029044604D1B8
:100D100009A82D21017001240398B11E0D2907D8BF
:100D2000069E002D05D009A90A556D1E641CF8E722
:100D3000069E0028059D03D109A82D210155641C9C
:100D40000098002814D138487844079010E02846CD
:100D5000394600F0BBF8314600F03EF90798405C98
:100D600009A908553846314600F0B0F80746641C1A
:100D7000002FECD109A82146FFF7C8FE049FE4E646
:100D800000203A5C401C002AFBD1451E00E0079D74
:100D9000002914D0002DF1D03E783009069C20188F
:100DA000079501252946FFF7B1FE0F203040201896
:100DB0002946079DFFF7AAFE7F1C6D1EEAE738460D
:100DC0002946FFF7A3FE049F0598A84200D8BCE679
:100DD0002C1A002C00D1B8E6114878440121FFF705
:100DE00095FE641CF5E7404205900D9000210091AE
:100DF000039F69E70798441C084878440121FFF7DE
:100E000085FE641EF8D1DEE70EB0F0BC01BC03B075
:100E10000047C046720A00005C0A0000D4050000CA
:100E2000F4050000BE090000300900005B08000066
:100E300001DF002900D170470846FFF759FEE0B5F1
:100E400000200190009001206946FFF7F1FF8CBD62
:100E5000E0B500210191009002486946FFF7E8FFE4
:100E60008CBDC04667000001E0B5002001906820FD
:100E70006946FFF7DDFF8CBD82B000210191009033
:100E800002486946FFF7D4FFFFDEFEE79A00000143
:100E9000E0B50191009002486946FFF7C9FF8CBD9B
:100EA00083000002E0B50020019087206946FFF72B
:100EB000BFFF8CBDE0B5002101910090024869465A
:100EC000FFF7B6FF8CBDC0460B01000100224308AE
:100ED0008B4274D303098B425FD3030A8B4244D302
:100EE000030B8B4228D3030C8B420DD3FF22090244
:100EF00012BA030C8B4202D31212090265D0030B03
:100F00008B4219D300E0090AC30B8B4201D3CB03F8
:100F1000C01A5241830B8B4201D38B03C01A52413A
:100F2000430B8B4201D34B03C01A5241030B8B423C
:100F300001D30B03C01A5241C30A8B4201D3CB0227
:100F4000C01A5241830A8B4201D38B02C01A52410C
:100F5000430A8B4201D34B02C01A5241030A8B420F
:100F600001D30B02C01A5241CDD2C3098B4201D327
:100F7000CB01C01A524183098B4201D38B01C01AA5
:100F8000524143098B4201D34B01C01A524103091C
:100F90008B4201D30B01C01A5241C3088B4201D3CB
:100FA000CB00C01A524183088B4201D38B00C01A78
:100FB000524143088B4201D34B00C01A5241411A9F
:100FC00000D20146524110467047FFE701B50020AC
:100FD00000F006F802BDC0460029F7D076E770475A
:100FE0007047C046F0B5CE46474615042D0C2E007E
:100FF00080B50704140C3F0C9946030C7E435D43F7
:10100000674363437F19340CE4199C46A54203D916
:1010100080235B029846C4444B4643435143250C0E
:1010200036046544360C2404A4195B1959182000B1
:101030000CBC90469946F0BD10B5002200F00AF8AD
:1010400010BDC04610B500F035F810BD10B500F069
:1010500085F810BD130010B50A00190000F0DCF887
:1010600010BDC04630B5032A0CD903000B439B07C3
:101070001CD103680C68A34218D1043A043004312F
:10108000032AF6D8551E002A0ED002780C78944216
:101090000ED101350123013904E0C25C0133CC5C7F
:1010A000A24205D1AB42F8D1002030BD551EECE77D
:1010B000101BFAE7F0B5C64600B50F2A43D90B005E
:1010C000032603431E400C000300002E40D11500F0
:1010D000103D2D09AC462D01A846804400E03B00A0
:1010E000676825685F60E7681D60DF601F00A568AE
:1010F00010379D6010344345F1D165460F230C2411
:1011000001352D01491913404519144223D08C593A
:10111000AC5104369C1B032CF9D80324043B9B08D8
:1011200001339B002240ED18C918561E002A07D033
:10113000002300E02300CA5C5C1CEA549E42F9D103
:1011400004BC9046F0BD0500561E002AF0D1F7E71A
:10115000561E0500ECE71A00F6E7C046F0B5C64695
:1011600000B588420CD98B18984209D2531E002A28
:1011700003D0CA5CC254013BFBD204BC9046F0BD14
:101180000F2A0CD80500561E002AF6D0002300E0D6
:101190002300CA5C5C1CEA549E42F9D1EDE70B00C7
:1011A000032603431E400C000300002E2ED1150021
:1011B000103D2D09AC462D01A846804400E02B00CF
:1011C0001D00276810351F6067685F60A7689F6013
:1011D000E7681034DF604345F1D165460F230C24E6
:1011E00001352D01491913404519144211D08C596C
:1011F000AC5104369C1B032CF9D80324043B9B08F8
:1012000001339B00ED18C9182240BCE7561E0500AB
:10121000BCE71A00B7E7C046F0B5050083074AD01F
:10122000541E002A44D0CEB20300032202E001354E
:10123000013C3DD301332E701342F8D1032C2FD93A
:10124000FF220A40150215432A0415430F2C35D9F5
:101250002700103F3F093E01B4461E001A00103619
:101260006644156055609560D5601032B242F8D181
:101270000F260C2201373F012640DB19370022429E
:1012800017D03E1FB608B400A4461A001C1D6444C3
:1012900020C2A242FCD103240136B6009B193C4077
:1012A000002C05D0C9B21C19197001339C42FBD126
:1012B000F0BD3400F4E714000300BFE72700E0E7C7
:1012C000F0C041464A4653465C466D4676467EC06F
:1012D0002838F0C80020704710307CC890469946E6
:1012E000A246AB46B54608C82838F0C8081C00D14D
:1012F00001201847F0B5002A13D0013A002A19D06E
:1013000000234F1C461C02E001339A4216D0F51808
:10131000AC46CD5CFC18C554002DF5D1601A0138DF
:10132000F0BD0C00230001335A1E12781C00002A65
:10133000F9D1F3E70C0000230370F3E76046FAE706
:1013400010B500290BD00378002B0CD044180300F3
:1013500002E01A78002A04D00133A342F9D1080030
:1013600010BD191AFBE70021F9E7C046506C7567FC
:10137000696E20706172616D65746572732073743B
:101380007275637475726520697320626967676539
:1013900072207468616E20616C6C6F776564207375
:1013A000697A650A0053656E64005741524E494E92
:1013B00047006F65746820706C7567696E20707285
:1013C0006F7669646520706172616D657465723AEB
:1013D00020002000506172616D206E6F7420737563
:1013E00070706F727465640A00544F4B454E205301
:1013F000454E543A20004F45544820706C7567693B
:101400006E2070726F7669646520746F6B656E3ADA
:1014100020307825702C20307825700A004D696EB8
:10142000740025303278005377617000544F4B457B
:101430004E2052454345495645443A20004F5553A6
:1014400044004F726967696E2044654669005265C1
:101450006465656D00457468657265756D00300082
:1014600053657474696E6720616464726573732078
:10147000726563656976656420746F3A2000506117
:1014800072616D206E6F7420737570706F72746509
:10149000643A2025640A0052656365697665204DCB
:1014A000696E00457863657074696F6E20307825C9
:1014B00078206361756768740A0045544820534575
:1014C0004C45435445443A2000736672784554486D
:1014D00000556E6B6E6F776E20746F6B656E006477
:1014E000657374696E6174696F6E3A200065786324
:1014F000657074696F6E5B25645D3A204C523D30B7
:1015000078253038580A004552524F5200556E68BF
:10151000616E646C6564206D657373616765202519
:10152000640A0053657474696E672061646472654F
:1015300073732073656E7420746F3A20000A005232
:101540006563656976656420616E20696E76616C9D
:1015500069642073637265656E496E6465780A001C
:10156000496E636F6D696E6720706172616D65743D
:1015700065723A2000414D4F554E542053454E540C
:101580003A2025730A000053656C6563746F7220FE
:10159000496E646578203A2564206E6F74207375F7
:1015A00070706F727465640A00556E68616E646C69
:1015B00065642073656C6563746F7220496E646541
:1015C000783A2025640A00554E495453004465700A
:1015D0006F736974004D697373696E672073656C0E
:1015E0006563746F72496E6465783A2025640A00F9
:1015F00053656C6563746F7220496E64657820254D
:1016000064206E6F7420737570706F727465640AF5
:10161000004F45544800414D4F554E5420524543CC
:1016200045495645443A2025730A004F4554482001
:1016300053454C45435445443A2000D4B00DE3D0C3
:101640007DE943D4F6296E157323BC7C2421F03D3B
:1016500000000000856C4EFB76C1D1AE02E20CEBBF
:1016600003A2A6A08B0B8DC339254033945AA2E464
:10167000809CC2977E7087BEE48BD7AB303132330B
:1016800034353637383961626364656630313233F8
:10169000343536373839414243444546000000006E
:1016A000000000000000000000000000000000003A
:1016B000D4D4D4D4D4D4D4D4D4D4D4D4D4D4D4D4EA
:1016C000D4D4D4D4D4D4D4D4D4D4D4D4D4D4D4D4DA
:1016D000D4D4D4D4D4D4D4D4D4D4D4D4D4D4D4D4CA
:1016E000D4D4D4D4D4D4D4D4D4D4D4D4D4D4D4D4BA
:1016F000D4D4D4D4D4D4D4D4D4D4D4D4D4D4D4D4AA
:04000005C0DE000158
:00000001FF
