:02000004C0DE5C
:1000000070B58CB0044662B600F064FE6D462846BA
:1000100001F04EFAA88585B26846002D0DD101F099
:1000200041F80A9001F003F80D281ED2002C1FD1D0
:1000300000F042FE00200CB070BD002686850A98B4
:1000400001F030F81448854201D0072D07D18320F4
:1000500040002168814202D16068342146540F4833
:100060007844294600F05CFE0BE0FF2000F0FCFF26
:10007000206883214900F931884202D0616800F08C
:10008000E1FD01F007F86946884202D10A9801F0C3
:1000900009F800F0E1FFC0460265000038160000D4
:1000A000F8B501290AD10478302C07D1022B1AD3D4
:1000B00000205070302010700120F8BD069F8F4244
:1000C0000ED28D1C9D420ED8CD1B134606460097BE
:1000D000B9420AD034781C705B1C761C7F1CF7E791
:1000E000FD1C9D4212D90020F8BD009B002B2B4621
:1000F00002D02E2353556B1C4019D61800242F19FB
:100100008F4211D2075D3755641CF8E72E235370D8
:10011000302515703C467E1AB31C971C002E05D066
:100120003D707F1C761EF9E718190AE015190226A2
:10013000711A022904D006786E54401C491CF8E755
:1001400060180021115483420AD200291C4600D0B5
:100150000C46D15C302900D000245B1C2146F2E71C
:100160000120002906D000235354491E545C2E2C34
:1001700000D15354F8BDD4D4F0B58BB001922029EE
:1001800017D80E460746009303AD20242846214683
:1001900001F04AF8A81B20303946324601F04AF8EF
:1001A0002846214600F050F8002804D0009A022A80
:1001B00030D2002642E00020009B202805D003A971
:1001C0000A5A52BA0A52801CF7E7029303A8202168
:1001D00000F03AF80646002823D1029800282BD0D8
:1001E00000263046202E0DD003AFB95B0004441822
:1001F0000A252046294600F061FFB8534543601B9D
:10020000B61CEFE730210843029A521E0199029270
:100210008854DBE70B497944019801F063F9012622
:100220000CE0019D029AA9180098841A28462246DB
:1002300001F004F800202855701E864130460BB0AE
:10024000F0BDC0463D14000010B500231A46994287
:1002500003D0845C531C002CF8D08A4201D20020C9
:1002600010BD012010BDF0B59DB0039302920C4665
:10027000054604AF64263846314600F0D5FF2846CF
:1002800021463A463346FFF777FF00282ED0239EBB
:10029000229D04A8642101F04BF901900B210398E1
:1002A00001F046F90446C7B2B742324600D83A4692
:1002B0002846039900F0BEFF002F04D02020E85507
:1002C000601CC0B200E00020029900912A18C043CF
:1002D00083190198C1B204A8FFF7E2FE002805D0F7
:1002E0007019401E002101701DB0F0BD072000F004
:1002F000F7FCD4D4F8B5044602200090607760681B
:10030000A5680168A5311D48784400F041F82E46E3
:1003100040361B4979441422304600F09BFF2F469B
:100320007E37002805D017487844314600F030F871
:1003300006E01220787038780121014339700026D8
:10034000E6605435104979441422284600F082FFB3
:10035000002806D00D487844294600F019F8009985
:1003600006E01220B87038780099084338700025EC
:100370000420A07721772561F8BDC046BD13000099
:10038000EC150000E1130000BA150000FF12000098
:1003900070B50C4600F0C4FC0026074D7D44142EB9
:1003A00005D0A15D284600F0BBFC761CF7E70348AA
:1003B000784400F0B5FC70BD7612000073130000A5
:1003C00070B5044600780126062807D120698528E3
:1003D00006D82448784400F0A3FC0026667070BD5F
:1003E000E5688621284600F01FFF6069017809064C
:1003F000427812045118827812028918C0780818BD
:1004000084350021184A7A440F29E7D013688342C3
:1004100002D0121D491CF7E769700E29DED8C8B258
:100420000E280CD80122824053049B0E01D00220DA
:1004300013E0D3055B0F0FD19206920F0CD1002869
:100440000ED00328F3D0022806D00128EFD00748A9
:10045000784400F065FCC0E7002028700426BDE762
:100460000320FAE788110000121400007013000046
:10047000F8B505468468C26861487844202100F0D8
:10048000D9F8042028758520265C224684320E2E59
:1004900025D801273846B0404104890E06D010788F
:1004A000052806D0022841D1E96846E0C105490F78
:1004B00000D0F8BD8006800F11D010780528F8D044
:1004C000012852D002283FD0032834D000282DD153
:1004D00028462146144600F0C7F82770F8BD032EC1
:1004E0000BD0012E09D0022E0FD0002E35D111785D
:1004F0000529DED04348784432E010780528D8D06A
:10050000032818D0022811D11EE010780528D0D079
:10051000022819D003280ED0002807D128462146EA
:10052000144600F0A1F802202070F8BD3648784447
:1005300000F0F6FB16E0E96820341546202220463C
:1005400000F078FE052006E0E968154620222046E6
:1005500000F070FE03202870F8BD3548784431461D
:1005600000F0DEFB00202875F8BD17465434142136
:10057000204600F059FE042E1CD168680668A53696
:10058000224878441422314600F064FE002820D02E
:10059000214878441422314600F05CFE00280FD137
:1005A000E868C07F022825D327D003281AD11B4929
:1005B000794401E0E9680C311422204600F03AFE4B
:1005C0001A4878441421224600F034F8022038708A
:1005D000F8BDE868C07F012809D0002802D10C4985
:1005E0007944E9E71048784400F09AFBE8E70949C4
:1005F0007944E1E70A497944DEE70A497944DBE7CF
:10060000281100007D110000961000003613000034
:1006100020130000641200003A130000E0120000F2
:100620007212000080120000DE0F00005A1000005D
:100630007F12000070B514460D4600F071FB084EA5
:100640007E44002D06D02178304600F069FB641C02
:100650006D1EF6E70348784400F062FB70BDC046AB
:10066000D20F0000CD10000070B50E4605460C46B6
:1006700040341421204600F0D7FDEA68244878442D
:100680002021FFF7D7FF8520305C04281CD1686843
:100690000668A5361F4878441422314600F0DAFD7A
:1006A00000281ED01E4878441422314600F0D2FDA6
:1006B00000280FD1E868C07F022823D325D0032863
:1006C00018D11849794401E0E9680C311422204618
:1006D00000F0B0FD1748784414212246FFF7AAFF26
:1006E00070BDE868C07F012809D0002802D10A49FE
:1006F0007944EBE70E48784400F012FBEAE707493B
:100700007944E3E708497944E0E708497944DDE7BB
:10071000C810000022120000101200005411000046
:1007200026120000CC1100006211000070110000C0
:10073000CE0E0000030F0000F8B504468568C168BE
:1007400002693A48784400F0EBFA2E4640363849C0
:1007500079441422304600F07DFD2F467E37002874
:100760000BD0E168002924D0C87F78702846683013
:1007700014310B2200F0B6FE01E0122078703878B8
:100780000121014339702E4654362C4979441422F4
:10079000304600F05FFD002835D0216900291DD0CA
:1007A000C87FB870733514310B22284600F09AFECA
:1007B0002BE0204979441422304600F04BFD1221F1
:1007C00079700028DBD0284668301B4979440B2219
:1007D00000F088FE207D401C2075D4E7184979443C
:1007E0001422304600F036FD00280CD01220B870DC
:1007F0007335F87903280FD1124979440B22284622
:1008000000F070FE05E01220B87038780221014334
:10081000397004206075F8BD0B4979440B222846D5
:1008200000F060FE207D401C2075F2E7A20E000063
:10083000B0110000A0100000A00F00007411000013
:1008400076100000B80F0000520F0000B0B504464B
:100850008568C06822691049794400F043FE85200C
:10086000295C081F0B2802D20F49794407E00329AD
:1008700002D20A49794402E008D109497944606901
:10088000A26900F02FFE04202077B0BD054878440F
:1008900000F046FA0020F7E7DA0D0000990D00009D
:1008A000C20D0000DF0E0000AD0D0000F0B585B0F8
:1008B0000446C569406AA16A00F0B6FCE06A216B93
:1008C00000F0B2FC27462037042038752020265C33
:1008D0007E200495285C03210140022305461D402B
:1008E00001220240012E15D0002E78D14842484105
:1008F000CE1E714271410143501E82410A43701E57
:100900008641002900D07100002A00D11946002A32
:100910000FD010E04B424B41C81E414241410B43B6
:1009200000D10221501E8241134300D11946002BF1
:1009300001D1002D53D0022959D0049D28467E3084
:10094000012961D000294AD10546049E40369E49BE
:1009500079441422304600F07DFC002806D104982A
:100960006830214610310B2200F0BCFD97497944D4
:100970001422304600F06EFC002806D1049868303E
:10098000934979440B2200F0ADFD606AA26A914957
:10099000794400F0A7FDE979081F052800D202E19B
:1009A0000E2900D180E0012900D182E0022911D076
:1009B000032900D188E0092900D19BE00A2973D0DE
:1009C0000B2900D19BE00C296ED00D2900D1A0E0AD
:1009D000002955D1606AA26A7F497944E1E09848CC
:1009E000784400F09DF90020387505B0F0BD606ACC
:1009F000A26A9149794400F075FDE06A226B8F4943
:100A0000794400F06FFDF0E703902E4654367E499E
:100A100079441422304600F01DFC002806D12846F7
:100A20007330214610310B2200F05CFD7749794488
:100A30001422304600F00EFC002806D12846733000
:100A4000734979440B2200F04DFD606AA26A714936
:100A5000794400F047FD039EF179081F052800D274
:100A60008CE0032911D35FD0092913D00A2961D062
:100A70000B290FD00C2969D00D290BD00E2971D06C
:100A80006548784400F04CF9ADE728467330634977
:100A900079444DE028467330624979440B2200F0D6
:100AA00021FDB078122166E00498683055497944F8
:100AB00029E0606AA26A4A49794400F013FD04986B
:100AC0006830484979446BE0606AA26A46497944D3
:100AD00000F008FD60680168A5314448784414229C
:100AE00000F0B8FB014604986830002956D041490F
:100AF000794455E0049868303F4979440DE0049802
:100B000068303E4979440B2200F0ECFC68781221F1
:100B100008E0049868303A4979440B2200F0E2FC7E
:100B20006878062101223CE0284673303C4979442C
:100B30000B2221E0284673303C4979440B2200F017
:100B4000D1FCB0780621012200F0CCFC284673309D
:100B5000374979440B2200F0C5FCB07812210122FC
:100B600000F0C0FC28467330324979440B2200F073
:100B7000B9FCB0780621012200F0B4FCB278E06A3A
:100B8000216B0090019128462030733520212B469F
:100B9000FFF769FBE16A2448784412E0144979447C
:100BA0000B2200F09FFC6A78E06A216B00900191B3
:100BB0000498034668332021FFF755FBE16A074894
:100BC000784400F0ADF810E7B00F0000E60E00002A
:100BD0007A0E0000050C0000DE0D00009B0B0000EB
:100BE000000D0000EB0B0000700B0000C80D0000B2
:100BF0005E0C00003D0B0000950C0000540A000044
:100C00002D0B00007F0B0000F00E0000260E0000F0
:100C1000BA0D00003C0C0000120D00006C0D00002D
:100C2000840C0000930B0000690C0000550C0000C0
:100C3000060A0000DB0A0000A60B0000B70C00004B
:100C4000450D000080B5024683204000824217D047
:100C500081204000824217D0FF20034604339A428D
:100C600016D041239B009A4216D0034606339A427F
:100C700016D00230824217D10846FFF7A1FB80BD93
:100C80000846FFF713FE80BD0846FFF7F1FB80BD65
:100C90000846FFF72FFB80BD0846FFF74DFD80BDDE
:100CA0000846FFF7D3FD80BD02487844114600F0A6
:100CB00037F880BD490A0000F8B50548784401902E
:100CC000012003900002029001A800F0B9F98FBD45
:100CD0008E09000080B5002000F0E4F980BDD4D476
:100CE0000446724604487844214600F019F800F0A2
:100CF000D1F9214600F0E8FBED090000BCB50C4637
:100D0000054601A881705F210170210A417003210D
:100D100000F0B6F9A1B2284600F0B2F9BCBDD4D4B7
:100D200083B0F0B58EB013AC0EC4002800D163E1DF
:100D3000074613A80890012003903878002800D1B6
:100D40005AE13C460025002805D0252803D060192B
:100D500040786D1CF7E720462946FFF7CFFF67195B
:100D6000605D2528E9D16019471C002420260794DE
:100D70002246104639787F1C00222D29F9D00A46D8
:100D8000303A0A2A16D3252944D02A2904971ED09E
:100D90002E2927D138782A287DD1049840784828F0
:100DA00003D0732801D0682875D1049F7F1C0122CD
:100DB000089812E030220B465340234300D03246BD
:100DC0000A2363435C18303C16460246D1E7387864
:100DD000732860D102220898049F011D08910068C1
:100DE0000790C6E7482917D058291AD0632925D07B
:100DF00064292DD0834A7A440692682937D0702915
:100E000005D0732936D0752949D0782943D1019668
:100E1000002008E0781E17E005947B49794406918C
:100E200026E0019601200090039F0898011D08917B
:100E3000006805900D90102006903CE00898011D78
:100E4000089100680D900DA80121FFF757FF74E786
:100E50000898011D089100680D900A21002801964C
:100E6000069100D5B7E005900020009022E005949F
:100E7000039901E005940021089A131D0893C0B25C
:100E80001768002874D0012879D0022878D13878E2
:100E9000002800D1A6E061487844052164E001966D
:100EA0000898011D0891006805900D9000200090A1
:100EB0000A200690039F39465648784407900291CD
:100EC000C8193840261A751E0024069821463A464D
:100ED000234600F07FF94A1E9141059A904205D8B9
:100EE000002903D16D1E761E0746EDE70298002803
:100EF0000398019A09D1D1B200203029044604D1C7
:100F000009A82D21017001240398B11E0D2907D8CD
:100F1000069E002D05D009A90A556D1E641CF8E730
:100F2000069E0028059D03D109A82D210155641CAA
:100F30000098002814D138487844079010E02846DB
:100F4000394600F0BBF8314600F03EF90798405CA6
:100F500009A908553846314600F0B0F80746641C28
:100F6000002FECD109A82146FFF7C8FE049FE4E654
:100F700000203A5C401C002AFBD1451E00E0079D82
:100F8000002914D0002DF1D03E783009069C20189D
:100F9000079501252946FFF7B1FE0F2030402018A4
:100FA0002946079DFFF7AAFE7F1C6D1EEAE738461B
:100FB0002946FFF7A3FE049F0598A84200D8BCE687
:100FC0002C1A002C00D1B8E6114878440121FFF713
:100FD00095FE641CF5E7404205900D9000210091BC
:100FE000039F69E70798441C084878440121FFF7EC
:100FF00085FE641EF8D1DEE70EB0F0BC01BC03B084
:101000000047C046EA0A0000D40A0000D8050000E4
:10101000F8050000360A0000A80900005508000085
:1010200001DF002900D170470846FFF759FEE0B5FF
:1010300000200190009001206946FFF7F1FF8CBD70
:10104000E0B500210191009002486946FFF7E8FFF2
:101050008CBDC0466700000182B00020019068206E
:101060006946FFF7DDFFFFDE82B0002101910090AD
:1010700002486946FFF7D4FFFFDEC0469A00000130
:10108000E0B50191009002486946FFF7C9FF8CBDA9
:1010900083000002E0B50020019087206946FFF739
:1010A000BFFF8CBDE0B50021019100900248694668
:1010B000FFF7B6FF8CBDC0460B01000100224308BC
:1010C0008B4274D303098B425FD3030A8B4244D310
:1010D000030B8B4228D3030C8B420DD3FF22090252
:1010E00012BA030C8B4202D31212090265D0030B11
:1010F0008B4219D300E0090AC30B8B4201D3CB0307
:10110000C01A5241830B8B4201D38B03C01A524148
:10111000430B8B4201D34B03C01A5241030B8B424A
:1011200001D30B03C01A5241C30A8B4201D3CB0235
:10113000C01A5241830A8B4201D38B02C01A52411A
:10114000430A8B4201D34B02C01A5241030A8B421D
:1011500001D30B02C01A5241CDD2C3098B4201D335
:10116000CB01C01A524183098B4201D38B01C01AB3
:10117000524143098B4201D34B01C01A524103092A
:101180008B4201D30B01C01A5241C3088B4201D3D9
:10119000CB00C01A524183088B4201D38B00C01A86
:1011A000524143088B4201D34B00C01A5241411AAD
:1011B00000D20146524110467047FFE701B50020BA
:1011C00000F006F802BDC0460029F7D076E7704768
:1011D0007047C046F0B5CE46474615042D0C2E008C
:1011E00080B50704140C3F0C9946030C7E435D4305
:1011F000674363437F19340CE4199C46A54203D925
:1012000080235B029846C4444B4643435143250C1C
:1012100036046544360C2404A4195B1959182000BF
:101220000CBC90469946F0BD10B5002200F00AF8BB
:1012300010BDC04610B500F035F810BD10B500F077
:1012400085F810BD130010B50A00190000F0DCF895
:1012500010BDC04630B5032A0CD903000B439B07D1
:101260001CD103680C68A34218D1043A043004313D
:10127000032AF6D8551E002A0ED002780C78944224
:101280000ED101350123013904E0C25C0133CC5C8D
:10129000A24205D1AB42F8D1002030BD551EECE78B
:1012A000101BFAE7F0B5C64600B50F2A43D90B006C
:1012B000032603431E400C000300002E40D11500FE
:1012C000103D2D09AC462D01A846804400E03B00AE
:1012D000676825685F60E7681D60DF601F00A568BC
:1012E00010379D6010344345F1D165460F230C241F
:1012F00001352D01491913404519144223D08C5949
:10130000AC5104369C1B032CF9D80324043B9B08E6
:1013100001339B002240ED18C918561E002A07D041
:10132000002300E02300CA5C5C1CEA549E42F9D111
:1013300004BC9046F0BD0500561E002AF0D1F7E728
:10134000561E0500ECE71A00F6E7C046F0B5C646A3
:1013500000B588420CD98B18984209D2531E002A36
:1013600003D0CA5CC254013BFBD204BC9046F0BD22
:101370000F2A0CD80500561E002AF6D0002300E0E4
:101380002300CA5C5C1CEA549E42F9D1EDE70B00D5
:10139000032603431E400C000300002E2ED115002F
:1013A000103D2D09AC462D01A846804400E02B00DD
:1013B0001D00276810351F6067685F60A7689F6021
:1013C000E7681034DF604345F1D165460F230C24F4
:1013D00001352D01491913404519144211D08C597A
:1013E000AC5104369C1B032CF9D80324043B9B0806
:1013F00001339B00ED18C9182240BCE7561E0500BA
:10140000BCE71A00B7E7C046F0B5050083074AD02D
:10141000541E002A44D0CEB20300032202E001355C
:10142000013C3DD301332E701342F8D1032C2FD948
:10143000FF220A40150215432A0415430F2C35D903
:101440002700103F3F093E01B4461E001A00103627
:101450006644156055609560D5601032B242F8D18F
:101460000F260C2201373F012640DB1937002242AC
:1014700017D03E1FB608B400A4461A001C1D6444D1
:1014800020C2A242FCD103240136B6009B193C4085
:10149000002C05D0C9B21C19197001339C42FBD134
:1014A000F0BD3400F4E714000300BFE72700E0E7D5
:1014B000F0C041464A4653465C466D4676467EC07D
:1014C0002838F0C80020704710307CC890469946F4
:1014D000A246AB46B54608C82838F0C8081C00D15B
:1014E00001201847F0B5002A13D0013A002A19D07C
:1014F00000234F1C461C02E001339A4216D0F51817
:10150000AC46CD5CFC18C554002DF5D1601A0138ED
:10151000F0BD0C00230001335A1E12781C00002A73
:10152000F9D1F3E70C0000230370F3E76046FAE714
:1015300010B500290BD00378002B0CD04418030001
:1015400002E01A78002A04D00133A342F9D108003E
:1015500010BD191AFBE70021F9E7C04644414900D4
:10156000506C7567696E20706172616D657465722B
:101570007320737472756374757265206973206269
:101580006967676572207468616E20616C6C6F7743
:1015900065642073697A650A0053656E640057417B
:1015A000524E494E47006F65746820706C756769CC
:1015B0006E2070726F7669646520706172616D650E
:1015C0007465723A20002000506172616D206E6F68
:1015D0007420737570706F727465640A00544F4B99
:1015E000454E2053454E543A20004F4554482070F4
:1015F0006C7567696E2070726F7669646520746FB0
:101600006B656E3A20307825702C20307825700A72
:10161000004D696E74002530327800537761700098
:10162000544F4B454E2052454345495645443A2078
:10163000004F555344004F726967696E20446546F8
:10164000690052656465656D0055534443004574F7
:1016500068657265756D00300053657474696E67F6
:101660002061646472657373207265636569766571
:101670006420746F3A2000506172616D206E6F7447
:1016800020737570706F727465643A2025640A0067
:1016900052656365697665204D696E0045786365BE
:1016A0007074696F6E203078257820636175676883
:1016B000740A007366727845544800556E6B6E6FFD
:1016C000776E20746F6B656E0064657374696E610C
:1016D00074696F6E3A2000657863657074696F6E27
:1016E0005B25645D3A204C523D3078253038580AED
:1016F000004552524F5200556E68616E646C6564CD
:10170000206D6573736167652025640A00536574F5
:1017100074696E6720616464726573732073656EAB
:101720007420746F3A20000A00526563656976651B
:101730006420616E20696E76616C696420736372E7
:1017400065656E496E6465780A00496E636F6D6900
:101750006E6720706172616D657465723A20004138
:101760004D4F554E542053454E543A2025730A0090
:101770000053656C6563746F7220496E64657820F0
:101780003A2564206E6F7420737570706F72746583
:10179000640A005553445400556E68616E646C656C
:1017A000642073656C6563746F7220496E6465783C
:1017B0003A2025640A00554E495453004465706F21
:1017C000736974004D697373696E672073656C6526
:1017D00063746F72496E6465783A2025640A005319
:1017E000656C6563746F7220496E6465782025644A
:1017F000206E6F7420737570706F727465640A0068
:101800004F45544800414D4F554E54205245434595
:10181000495645443A2025730A00D4D4B00DE3D08C
:101820007DE943D4F6296E157323BC7C2421F03D59
:10183000D67E41A624A43C35598D4BC089F34B413B
:10184000960BAA35539093CB46C781590F5A098AF4
:10185000FD1FC1BF6981B6C6856C4EFB76C1D1AE96
:1018600002E20CEB03A2A6A08B0B8DC300000000CC
:101870000000000000000000000000000000000068
:101880000000000000000000000000000000000058
:101890000000000000000000000000000000000048
:1018A000000000000000000039254033945AA2E4F3
:1018B000809CC2977E7087BEE48BD7AB000000008F
:1018C0000000000000000000000000000000000018
:1018D0000000000000000000000000000000000008
:1018E0000000000030313233343536373839616228
:1018F00063646566303132333435363738394142C6
:1019000043444546000000000000000000000000C5
:101910000000000000000000D4D4D4D4D4D4D4D427
:10192000D4D4D4D4D4D4D4D4D4D4D4D4D4D4D4D477
:10193000D4D4D4D4D4D4D4D4D4D4D4D4D4D4D4D467
:10194000D4D4D4D4D4D4D4D4D4D4D4D4D4D4D4D457
:10195000D4D4D4D4D4D4D4D4D4D4D4D4D4D4D4D447
:10196000D4D4D4D4D4D4D4D4D4D4D4D4D4D4D4D437
:10197000D4D4D4D4D4D4D4D4D4D4D4D4D4D4D4D427
:10198000D4D4D4D4D4D4D4D4D4D4D4D4D4D4D4D417
:10199000D4D4D4D4D4D4D4D4D4D4D4D4D4D4D4D407
:1019A000D4D4D4D4D4D4D4D4D4D4D4D4D4D4D4D4F7
:1019B000D4D4D4D4D4D4D4D4D4D4D4D4D4D4D4D4E7
:1019C000D4D4D4D4D4D4D4D4D4D4D4D4D4D4D4D4D7
:1019D000D4D4D4D4D4D4D4D4D4D4D4D4D4D4D4D4C7
:1019E000D4D4D4D4D4D4D4D4D4D4D4D4D4D4D4D4B7
:1019F000D4D4D4D4D4D4D4D4D4D4D4D4D4D4D4D4A7
:04000005C0DE000158
:00000001FF
