:02000004C0DE5C
:1000000070B58CB0044662B600F084FC6D4628469C
:1000100001F06EF8A88585B26846002D0DD100F07C
:1000200061FE0A9000F023FE0D281ED2002C1FD185
:1000300000F062FC00200CB070BD002686850A9896
:1000400000F050FE1448854201D0072D07D18320CF
:1000500040002168814202D16068342146540F4833
:100060007844294600F07CFC0BE0FF2000F01CFEE9
:10007000206883214900F931884202D0616800F08C
:1000800001FC00F027FE6946884202D10A9800F080
:1000900029FE00F001FEC046026500006A12000061
:1000A000F8B501290AD10478302C07D1022B1AD3D4
:1000B00000205070302010700120F8BD069F8F4244
:1000C0000ED28D1C9D420ED8CD1B134606460097BE
:1000D000B9420AD034781C705B1C761C7F1CF7E791
:1000E000FD1C9D4212D90020F8BD009B002B2B4621
:1000F00002D02E2353556B1C4019D61800242F19FB
:100100008F4211D2075D3755641CF8E72E235370D8
:10011000302515703C467E1AB31C971C002E05D066
:100120003D707F1C761EF9E718190AE015190226A2
:10013000711A022904D006786E54401C491CF8E755
:1001400060180021115483420AD200291C4600D0B5
:100150000C46D15C302900D000245B1C2146F2E71C
:100160000120002906D000235354491E545C2E2C34
:1001700000D15354F8BDD4D4F0B58BB001922029EE
:1001800017D80E460746009303AD20242846214683
:1001900000F06AFEA81B20303946324600F06AFEA5
:1001A0002846214600F050F8002804D0009A022A80
:1001B00030D2002642E00020009B202805D003A971
:1001C0000A5A52BA0A52801CF7E7029303A8202168
:1001D00000F03AF80646002823D1029800282BD0D8
:1001E00000263046202E0DD003AFB95B0004441822
:1001F0000A252046294600F081FDB8534543601B7F
:10020000B61CEFE730210843029A521E0199029270
:100210008854DBE70B497944019800F083FF0126FD
:100220000CE0019D029AA9180098841A28462246DB
:1002300000F024FE00202855701E864130460BB089
:10024000F0BDC0466F10000010B500231A46994259
:1002500003D0845C531C002CF8D08A4201D20020C9
:1002600010BD012010BDF0B59DB0039302920C4665
:10027000054604AF64263846314600F0F5FD2846B1
:1002800021463A463346FFF777FF00282ED0239EBB
:10029000229D04A8642100F06BFF01900B210398BC
:1002A00000F066FF0446C7B2B742324600D83A466D
:1002B0002846039900F0DEFD002F04D02020E855E9
:1002C000601CC0B200E00020029900912A18C043CF
:1002D00083190198C1B204A8FFF7E2FE002805D0F7
:1002E0007019401E002101701DB0F0BD072000F004
:1002F00017FBD4D4F8B50446022000906077A568B7
:100300002E464036194979441422304600F0C2FD89
:100310002F467E37002805D015487844314600F036
:100320002DF806E0122078703878012101433970E9
:100330000026E66054350F4979441422284600F01F
:10034000A9FD002806D00C487844294600F016F88C
:10035000009906E01220B870387800990843387088
:1003600000250420A07721772561F8BD4211000007
:100370000B100000101100003F0F000070B50C467C
:1003800000F0EEFA0026074D7D44142E05D0A15D45
:10039000284600F0E5FA761CF7E70348784400F0B9
:1003A000DFFA70BDD20E0000A30F000070B5044646
:1003B00000780126062807D12069852806D81F481D
:1003C000784400F0CDFA0026667070BDE56886219D
:1003D000284600F049FD6069017809064278120458
:1003E0005118827812028918C078081884350021C3
:1003F000134A7A440629E7D01368834202D0121DBB
:10040000491CF7E769700529DED8C8B200280BD06F
:10041000042807D0022805D0032801D0012807D1DD
:10042000022002E0012000E0032028700426CBE730
:100430000448784400F094FAC5E7C046D80D00009F
:100440001E1000008A0F0000F8B504468568C268D7
:1004500033487844202100F06DF804202075852071
:10046000295C2F468437042915D001290BD0022995
:100470002AD0032907D0002935D1397805294DD054
:100480002848784431E03878052847D003282FD011
:1004900002283DD134E0387805283FD0012816D114
:1004A000543514262846314600F0DEFCE1680C3154
:1004B0002846324600F0DEFC1C48784431462A4685
:1004C00000F038F8022021E03878052826D00228EC
:1004D00016D003280CD000281AD12046294600F057
:1004E00043F8012012E01248784400F039FA13E092
:1004F000E16820352022284600F0BCFC052005E0FC
:10050000E1682022284600F0B5FC03203870F8BDD1
:100510000548784400F024FA00202075F8BDC04654
:10052000980D0000230E0000FA0C0000AA0D000038
:10053000EF0E000070B514460D4600F011FA084E9B
:100540007E44002D06D02178304600F009FA641C64
:100550006D1EF6E70348784400F002FA70BDC0460D
:100560001A0D0000E90D000070B50C460646403437
:1005700014252046294600F077FCF1680C3120460E
:100580002A4600F077FC0348784429462246FFF7C4
:10059000D1FF70BD990C000070B504468568C16834
:1005A00002692C48784400F0DBF9284640302A499B
:1005B0007944142200F06EFC2E467E3600280BD0C3
:1005C000E16800290FD0C87F707028466830143168
:1005D0000B2200F0A7FD01E012207070307801219D
:1005E000014331700BE012207070284668301B49BF
:1005F00079440B2200F096FD207D401C2075284692
:10060000543017497944142200F044FC00280BD0E0
:10061000216900290FD0C87FB070733514310B22C7
:10062000284600F07FFD01E01220B07030780221F2
:10063000014331700BE01220B070733509497944E1
:100640000B22284600F06EFD207D401C2075042002
:10065000607570BD8A0C0000980E0000830D0000CC
:10066000440E0000350D0000B0B504468568C06832
:1006700022691049794400F055FD8520295C032941
:1006800002D20D49794408E0042904D003290BD192
:100690000A49794401E00B4979446069A26900F094
:1006A00041FD04202077B0BD0548784400F058F99A
:1006B0000020F7E75D0B0000D10B0000E30B00000A
:1006C000CA0C0000C70B0000FEB50446C569406AAD
:1006D000A16A00F0C9FBE06A216B00F0C5FB264669
:1006E0002036042030752020275C7E200295285C6F
:1006F00003210140022305461D4001220240012F33
:1007000015D0002F34D148424841CF1E794279415B
:100710000143501E82410A43781E8741002900D0C0
:100720007900002A00D11946002A0FD010E04B4270
:100730004B41C81E414241410B4300D10221501E92
:100740008241134300D11946002B01D1002D0FD057
:10075000022914D0029D2F467E3701291CD0002982
:1007600006D1F979032940D23A497944029D4BE0F8
:100770004248784400F0F4F800203075FEBD606A0D
:10078000A26A3C49794400F0CDFCE06A226B3A4908
:10079000794400F0C7FCFEBDF97904292DD8606AC0
:1007A000A26A3149794400F0BDFC284654302F49F3
:1007B0007944142200F06EFB002806D128467330DD
:1007C000214610310B2200F0ADFCBA78E06A216BB3
:1007D0000090019128462030733520212B46FFF7E9
:1007E00042FDE16A2248784430E00429029D09D0A4
:1007F000032902D11849794406E02148784400F0E1
:10080000AFF8B9E715497944606AA26A00F08AFC3A
:100810002846403012497944142200F03BFB00285E
:1008200006D128466830214610310B2200F07AFCB0
:100830007A78E06A216B009001912B466833202181
:100840002846FFF710FDE16A0648784400F088F872
:10085000FEBDC0464A0C00007F0A0000D709000018
:10086000320C0000180B00001A0B0000980C00005E
:10087000120C00005E0A0000510B0000CF0B0000BC
:100880009A0B000080B5024683204000824217D0B8
:1008900081204000824217D0FF20034604339A4251
:1008A00016D041239B009A4216D0034606339A4243
:1008B00016D00230824217D10846FFF777FD80BD7F
:1008C0000846FFF701FF80BD0846FFF7BDFD80BD6C
:1008D0000846FFF70FFD80BD0846FFF75DFE80BDAF
:1008E0000846FFF7C1FE80BD02487844114600F07B
:1008F00037F880BD250A0000F8B505487844019016
:10090000012003900002029001A800F0B9F98FBD08
:100910008009000080B5002000F0E4F980BDD4D447
:100920000446724604487844214600F019F800F065
:10093000D1F9214600F0E8FBC9090000BCB50C461E
:10094000054601A881705F210170210A41700321D1
:1009500000F0B6F9A1B2284600F0B2F9BCBDD4D47B
:1009600083B0F0B58EB013AC0EC4002800D163E1A3
:10097000074613A80890012003903878002800D17A
:100980005AE13C460025002805D0252803D06019EF
:1009900040786D1CF7E720462946FFF7CFFF67191F
:1009A000605D2528E9D16019471C002420260794A2
:1009B0002246104639787F1C00222D29F9D00A469C
:1009C000303A0A2A16D3252944D02A2904971ED062
:1009D0002E2927D138782A287DD1049840784828B4
:1009E00003D0732801D0682875D1049F7F1C012291
:1009F000089812E030220B465340234300D0324681
:100A00000A2363435C18303C16460246D1E7387827
:100A1000732860D102220898049F011D0891006884
:100A20000790C6E7482917D058291AD0632925D03E
:100A300064292DD0834A7A440692682937D07029D8
:100A400005D0732936D0752949D0782943D101962C
:100A5000002008E0781E17E005947B497944069150
:100A600026E0019601200090039F0898011D08913F
:100A7000006805900D90102006903CE00898011D3C
:100A8000089100680D900DA80121FFF757FF74E74A
:100A90000898011D089100680D900A210028019610
:100AA000069100D5B7E005900020009022E0059463
:100AB000039901E005940021089A131D0893C0B220
:100AC0001768002874D0012879D0022878D13878A6
:100AD000002800D1A6E061487844052164E0019631
:100AE0000898011D0891006805900D900020009065
:100AF0000A200690039F3946564878440790029191
:100B0000C8193840261A751E0024069821463A4610
:100B1000234600F07FF94A1E9141059A904205D87C
:100B2000002903D16D1E761E0746EDE702980028C6
:100B30000398019A09D1D1B200203029044604D18A
:100B400009A82D21017001240398B11E0D2907D891
:100B5000069E002D05D009A90A556D1E641CF8E7F4
:100B6000069E0028059D03D109A82D210155641C6E
:100B70000098002814D138487844079010E028469F
:100B8000394600F0BBF8314600F03EF90798405C6A
:100B900009A908553846314600F0B0F80746641CEC
:100BA000002FECD109A82146FFF7C8FE049FE4E618
:100BB00000203A5C401C002AFBD1451E00E0079D46
:100BC000002914D0002DF1D03E783009069C201861
:100BD000079501252946FFF7B1FE0F203040201868
:100BE0002946079DFFF7AAFE7F1C6D1EEAE73846DF
:100BF0002946FFF7A3FE049F0598A84200D8BCE64B
:100C00002C1A002C00D1B8E6114878440121FFF7D6
:100C100095FE641CF5E7404205900D90002100917F
:100C2000039F69E70798441C084878440121FFF7AF
:100C300085FE641EF8D1DEE70EB0F0BC01BC03B047
:100C40000047C046F2090000DC090000E005000092
:100C5000000600003E090000B00800003108000056
:100C600001DF002900D170470846FFF759FEE0B5C3
:100C700000200190009001206946FFF7F1FF8CBD34
:100C8000E0B500210191009002486946FFF7E8FFB6
:100C90008CBDC04667000001E0B5002001906820CF
:100CA0006946FFF7DDFF8CBD82B000210191009005
:100CB00002486946FFF7D4FFFFDEFEE79A00000115
:100CC000E0B50191009002486946FFF7C9FF8CBD6D
:100CD00083000002E0B50020019087206946FFF7FD
:100CE000BFFF8CBDE0B5002101910090024869462C
:100CF000FFF7B6FF8CBDC0460B0100010022430880
:100D00008B4274D303098B425FD3030A8B4244D3D3
:100D1000030B8B4228D3030C8B420DD3FF22090215
:100D200012BA030C8B4202D31212090265D0030BD4
:100D30008B4219D300E0090AC30B8B4201D3CB03CA
:100D4000C01A5241830B8B4201D38B03C01A52410C
:100D5000430B8B4201D34B03C01A5241030B8B420E
:100D600001D30B03C01A5241C30A8B4201D3CB02F9
:100D7000C01A5241830A8B4201D38B02C01A5241DE
:100D8000430A8B4201D34B02C01A5241030A8B42E1
:100D900001D30B02C01A5241CDD2C3098B4201D3F9
:100DA000CB01C01A524183098B4201D38B01C01A77
:100DB000524143098B4201D34B01C01A52410309EE
:100DC0008B4201D30B01C01A5241C3088B4201D39D
:100DD000CB00C01A524183088B4201D38B00C01A4A
:100DE000524143088B4201D34B00C01A5241411A71
:100DF00000D20146524110467047FFE701B500207E
:100E000000F006F802BDC0460029F7D076E770472B
:100E10007047C046F0B5CE46474615042D0C2E004F
:100E200080B50704140C3F0C9946030C7E435D43C8
:100E3000674363437F19340CE4199C46A54203D9E8
:100E400080235B029846C4444B4643435143250CE0
:100E500036046544360C2404A4195B195918200083
:100E60000CBC90469946F0BD10B5002200F00AF87F
:100E700010BDC04610B500F035F810BD10B500F03B
:100E800085F810BD130010B50A00190000F0DCF859
:100E900010BDC04630B5032A0CD903000B439B0795
:100EA0001CD103680C68A34218D1043A0430043101
:100EB000032AF6D8551E002A0ED002780C789442E8
:100EC0000ED101350123013904E0C25C0133CC5C51
:100ED000A24205D1AB42F8D1002030BD551EECE74F
:100EE000101BFAE7F0B5C64600B50F2A43D90B0030
:100EF000032603431E400C000300002E40D11500C2
:100F0000103D2D09AC462D01A846804400E03B0071
:100F1000676825685F60E7681D60DF601F00A5687F
:100F200010379D6010344345F1D165460F230C24E2
:100F300001352D01491913404519144223D08C590C
:100F4000AC5104369C1B032CF9D80324043B9B08AA
:100F500001339B002240ED18C918561E002A07D005
:100F6000002300E02300CA5C5C1CEA549E42F9D1D5
:100F700004BC9046F0BD0500561E002AF0D1F7E7EC
:100F8000561E0500ECE71A00F6E7C046F0B5C64667
:100F900000B588420CD98B18984209D2531E002AFA
:100FA00003D0CA5CC254013BFBD204BC9046F0BDE6
:100FB0000F2A0CD80500561E002AF6D0002300E0A8
:100FC0002300CA5C5C1CEA549E42F9D1EDE70B0099
:100FD000032603431E400C000300002E2ED11500F3
:100FE000103D2D09AC462D01A846804400E02B00A1
:100FF0001D00276810351F6067685F60A7689F60E5
:10100000E7681034DF604345F1D165460F230C24B7
:1010100001352D01491913404519144211D08C593D
:10102000AC5104369C1B032CF9D80324043B9B08C9
:1010300001339B00ED18C9182240BCE7561E05007D
:10104000BCE71A00B7E7C046F0B5050083074AD0F1
:10105000541E002A44D0CEB20300032202E0013520
:10106000013C3DD301332E701342F8D1032C2FD90C
:10107000FF220A40150215432A0415430F2C35D9C7
:101080002700103F3F093E01B4461E001A001036EB
:101090006644156055609560D5601032B242F8D153
:1010A0000F260C2201373F012640DB193700224270
:1010B00017D03E1FB608B400A4461A001C1D644495
:1010C00020C2A242FCD103240136B6009B193C4049
:1010D000002C05D0C9B21C19197001339C42FBD1F8
:1010E000F0BD3400F4E714000300BFE72700E0E799
:1010F000F0C041464A4653465C466D4676467EC041
:101100002838F0C80020704710307CC890469946B7
:10111000A246AB46B54608C82838F0C8081C00D11E
:1011200001201847F0B5002A13D0013A002A19D03F
:1011300000234F1C461C02E001339A4216D0F518DA
:10114000AC46CD5CFC18C554002DF5D1601A0138B1
:10115000F0BD0C00230001335A1E12781C00002A37
:10116000F9D1F3E70C0000230370F3E76046FAE7D8
:1011700010B500290BD00378002B0CD044180300C5
:1011800002E01A78002A04D00133A342F9D1080002
:1011900010BD191AFBE70021F9E7C046506C7567CE
:1011A000696E20706172616D65746572732073740D
:1011B000727563747572652069732062696767650B
:1011C00072207468616E20616C6C6F776564207347
:1011D000697A650A006F726967696E65746865721D
:1011E0000053656E64005741524E494E47006F658B
:1011F000746820706C7567696E2070726F766964B0
:101200006520706172616D657465723A200020001E
:10121000506172616D206E6F7420737570706F72A3
:101220007465640A00544F4B454E2053454E543A62
:1012300020004F45544820706C7567696E207072AD
:101240006F7669646520746F6B656E3A203078251F
:10125000702C20307825700A004D696E740025309E
:101260003278005377617000544F4B454E20524501
:101270004345495645443A200052656465656D0012
:10128000457468657265756D0030005365747469E6
:101290006E6720616464726573732072656365694B
:1012A00076656420746F3A2000506172616D206E23
:1012B0006F7420737570706F727465643A20256462
:1012C0000A0052656365697665204D696E00457850
:1012D00063657074696F6E2030782578206361755E
:1012E0006768740A00556E6B6E6F776E20746F6B53
:1012F000656E00657863657074696F6E5B25645D0B
:101300003A204C523D3078253038580A0045525228
:101310004F5200556E68616E646C6564206D657334
:10132000736167652025640A0053657474696E678C
:1013300020616464726573732073656E7420746FCA
:101340003A20000A00526563656976656420616E23
:1013500020696E76616C69642073637265656E499D
:101360006E6465780A00414D4F554E542053454EEA
:10137000543A2025730A000053656C6563746F72DC
:1013800020496E646578203A2564206E6F7420735E
:101390007570706F727465640A00556E68616E6472
:1013A0006C65642073656C6563746F7220496E644C
:1013B00065783A2025640A004465706F736974008B
:1013C0004D697373696E672073656C6563746F72C2
:1013D000496E6465783A2025640A0053656C65633C
:1013E000746F7220496E646578202564206E6F7476
:1013F00020737570706F727465640A00414D4F55AB
:101400004E542052454345495645443A2025730AD7
:1014100000D4D4D4B00DE3D07DE943D4F6296E15C1
:101420007323BC7C2421F03D0000000030313233B6
:10143000343536373839616263646566303132334A
:1014400034353637383941424344454600000000C0
:10145000000000000000000000000000000000008C
:10146000D4D4D4D4D4D4D4D4D4D4D4D4D4D4D4D43C
:10147000D4D4D4D4D4D4D4D4D4D4D4D4D4D4D4D42C
:10148000D4D4D4D4D4D4D4D4D4D4D4D4D4D4D4D41C
:10149000D4D4D4D4D4D4D4D4D4D4D4D4D4D4D4D40C
:1014A000D4D4D4D4D4D4D4D4D4D4D4D4D4D4D4D4FC
:1014B000D4D4D4D4D4D4D4D4D4D4D4D4D4D4D4D4EC
:1014C000D4D4D4D4D4D4D4D4D4D4D4D4D4D4D4D4DC
:1014D000D4D4D4D4D4D4D4D4D4D4D4D4D4D4D4D4CC
:1014E000D4D4D4D4D4D4D4D4D4D4D4D4D4D4D4D4BC
:1014F000D4D4D4D4D4D4D4D4D4D4D4D4D4D4D4D4AC
:04000005C0DE000158
:00000001FF
