:02000004C0DE5C
:1000000070B58CB0044662B601F05CFA6D462846C5
:1000100001F062FFA88585B26846002D0DD101F080
:1000200039FC0A9001F0FBFB0D281ED2002C1FD1D9
:1000300001F03AFA00200CB070BD002686850A98BF
:1000400001F028FC1448854201D0072D07D18320F8
:1000500040002168814202D16068342146540F4833
:100060007844294601F054FA0BE0FF2001F0F4FB3C
:10007000206883214900F931884202D0616801F08B
:10008000D9F901F0FFFB6946884202D10A9801F0D4
:1000900001FC01F0D9FBC046026500006D210000A3
:1000A00003B4014811E000004400000003B401481B
:1000B0000BE000004700000003B4014805E0000029
:1000C0005900000003B40248FFE702490847000056
:1000D0008600000001002100F0B591B0029203916A
:1000E0000546012616980146B1431E224A4017993B
:1000F0000A430024002A224616D104AA019233277B
:100100003B4600F057F80198394601F08DFF019900
:100110000B183A1A25497944184601F0F7FE019860
:10012000394601F081FF024604A801928018204F51
:100130007F44142C0AD0295D0F220A40BA5C427019
:100140000909795C0170801C641CF2E7029C20465E
:1001500000F06CF8019A283204A920460B4600F002
:100160006FF8002028281BD0024632404308E95C83
:10017000002A02D00F24214000E00909092901D8F2
:10018000795C09E004ACE35C920004245440E34051
:100190001A07795C00D52039039A1154401CE1E715
:1001A00028200021039A115411B0F0BD2221000033
:1001B000D7200000F0B587B002930B460546002417
:1001C0000192E7B2781C0299884229D20A2203924E
:1001D0000026284619460693334601F0F3FB0590A6
:1001E0000491039A334601F00DFC281A3021014393
:1001F000019AD155641C0920401B3046069988415C
:10020000059D049BDDD3E0B21654BE4206D2D05DFC
:10021000915DD15590557F1E761CF6E707B0F0BD75
:10022000014801F055F9C0460265000080B5012182
:100230000902FFF741FF002800D180BD01F048F915
:10024000BCB515460A4604462020009301900121C2
:1002500020462B46FFF72AFF002803D12046FFF750
:100260001FFFBCBD01F034F9F8B501290AD10478AB
:10027000302C07D1022B1AD3002050703020107080
:100280000120F8BD069F8F420ED28D1C9D420ED8D4
:10029000CD1B134606460097B9420AD034781C702D
:1002A0005B1C761C7F1CF7E7FD1C9D4212D90020C9
:1002B000F8BD009B002B2B4602D02E2353556B1C00
:1002C0004019D61800242F198F4211D2075D3755D7
:1002D000641CF8E72E235370302515703C467E1AB7
:1002E000B31C971C002E05D03D707F1C761EF9E7CD
:1002F00018190AE015190226711A022904D0067885
:100300006E54401C491CF8E76018002111548342C8
:100310000AD200291C4600D00C46D15C302900D0FE
:1003200000245B1C2146F2E70120002906D00023AF
:100330005354491E545C2E2C00D15354F8BDD4D4D0
:10034000F0B58BB00192202917D80E4607460093CE
:1003500003AD20242846214601F07AFCA81B20305A
:100360003946324601F07AFC2846214600F050F822
:10037000002804D0009A022A30D2002642E0002051
:10038000009B202805D003A90A5A52BA0A52801CA1
:10039000F7E7029303A8202100F03AF80646002868
:1003A00023D1029800282BD000263046202E0DD0D5
:1003B00003AFB95B000444180A252046294601F022
:1003C00075FAB8534543601BB61CEFE7302108436C
:1003D000029A521E019902928854DBE70B49794434
:1003E000019801F0C7FD01260CE0019D029AA918B1
:1003F0000098841A2846224601F034FC0020285533
:10040000701E864130460BB0F0BDC046AA1D0000EC
:1004100010B500231A46994203D0845C531C002C6B
:10042000F8D08A4201D2002010BD012010BDF0B5E5
:100430009DB0039302920C46054604AF64263846ED
:10044000314601F005FC284621463A463346FFF77F
:1004500077FF00282ED0239E229D04A8642101F05E
:10046000E3FD01900B21039801F0DEFD0446C7B2C5
:10047000B742324600D83A462846039901F0EEFBCF
:10048000002F04D02020E855601CC0B200E00020FE
:10049000029900912A18C04383190198C1B204A897
:1004A000FFF7E2FE002805D07019401E0021017000
:1004B0001DB0F0BD072001F00BF8D4D4F8B5044608
:1004C0000222427785689C20285CC11F0129009286
:1004D00009D8A06929466831142201F0CFFB002811
:1004E0000ED003200BE00F38012809D8A069294657
:1004F0006831142201F0C2FB002801D1012060778D
:100500002F4692372E4640361849794414223046F9
:1005100001F0B4FB002805D015487844314600F0BE
:100520002DF806E0122078703878012101433970E7
:100530000026E66054350F4979441422284601F01C
:100540009DFB002806D00C487844294600F016F898
:10055000009906E01220B870387800990843387086
:1005600000250420A07721772561F8BD761F0000C3
:100570003D1D0000481F0000421C000070B50C46E5
:1005800000F0C6FF0026074D7D44142E05D0A15D66
:10059000284600F0BDFF761CF7E70348784400F0DA
:1005A000B7FF70BD821B0000E11C0000F8B50446D7
:1005B00000780127062807D120699D2806D83148F0
:1005C000784400F0A5FF00276770F8BDE5689E211C
:1005D000284601F03DFB6069017809064278120463
:1005E0005118827812028918C078081895350026AB
:1005F00025497944112EE7D00A68824202D0091DAC
:10060000761CF7E7EE71102EDED8F0B201460939FC
:10061000082910D3011F022911D3002829D0082846
:100620000BD0022809D0032805D0062805D00728BA
:1006300021D0012817D1032720E000271EE0A06861
:100640000168A531114878441422009101F016FB8D
:100650000027002812D00E4878441422009901F097
:100660000DFB00280AD00B487844314600F050FFBB
:10067000A9E7082702E0022028700527EF70042769
:10068000A2E7C046941A0000761D0000F21D00008B
:10069000F41D0000A91C0000F8B505468668C26874
:1006A000AF487844202100F06BF904272F7595207E
:1006B000305C32469532002802D0401E1070F8BDE2
:1006C0002B460C3334469A34A1780846093806285C
:1006D0001CD3081F022822D308460F3802282AD329
:1006E00008293FD0012935D0022948D0032931D02B
:1006F000062965D0072976D0002900D095E0D17869
:10070000082900D197E09748784490E0D0780828ED
:1007100000D190E0032800D082E0196848E0D0784A
:10072000082800D187E0012800D18BE0032835D0CC
:1007300004284FD13AE0D07808287CD005287BD017
:1007400003286DD1196814462022304601F086FA3C
:10075000052033E0D07808286DD0042826D003285F
:100760005ED11BE0D078082865D0012800D18EE04A
:10077000032813D0042819D005282BD149E0D078BC
:10078000082858D0032809D004280FD0002847D1C2
:1007900028463146144600F00DF958E01968144611
:1007A0002022304601F05AFAE770F8BD1968203669
:1007B00014462022304601F051FA0820E070F8BDBE
:1007C000D078082837D01C46012842D003285AD0B8
:1007D00004285AD0002823D128463146144600F078
:1007E000E9F80120EAE7D07800285BD0012870D032
:1007F00002287FD00092032800D188E0042800D18D
:100800008DE00828009A16D0062800D191E005282E
:1008100006D128463146144600F0A0F903203CE0FA
:100820005148784400F074FE03E05448784400F0E6
:100830006FFE00202875F8BD28463146144600F0AA
:100840008DF9BAE728463146144600F01DF9032019
:10085000B4E7117945487844174600F059FE3879D5
:100860000090401C387120680C30414979441422B2
:1008700001F004FA00286AD02846314600F004F955
:100880000120F870F8BD216889E721688FE72846C4
:100890003146144600F0F8F80520E0702078401C3E
:1008A0002070F8BD196840361425304617462A4690
:1008B00001F0D4F9304878442946324600F060F817
:1008C0000120F87020881438C10E40184009401EDD
:1008D00043E020881438C10E411814461F2291436A
:1008E000401A1968091854361422304601F0B6F936
:1008F000022063E720881438C10E411814461F22D5
:100900009143421AB01A0C3A7430196853E71968C7
:100910002022304601F0A2F90098C770F8BD19688E
:1009200020362022304601F099F906200099C8703F
:10093000F8BD1868C17F807F00024018208081B216
:100940000C487844144600F0E3FD002036E703200D
:10095000385238780099401A13303870F8BDC046C4
:10096000F8190000A01A00009A18000017190000DA
:10097000141C0000111800002E190000001B0000BC
:1009800070B514460D4600F0C3FD084E7E44002DA0
:1009900006D02178304600F0BBFD641C6D1EF6E7E2
:1009A0000348784400F0B4FD70BDC0467E170000D7
:1009B000DB18000070B50E4605460C464034142185
:1009C000204601F045F99C20305CFE2101400429BD
:1009D0001FD168680668A53621487844142231463C
:1009E00001F04CF9002821D02048784414223146E7
:1009F00001F044F9002812D1E868C07F032826D00E
:100A0000012827D0022828D0002818D11849794475
:100A100001E0E9680C311422204601F01FF9194861
:100A2000784414212246FFF7ABFF70BDE868C07F11
:100A3000012809D0002802D10A497944EBE710487F
:100A4000784400F065FDEAE707497944E3E70B499C
:100A50007944E0E707497944DDE707497944DAE773
:100A60005E1A0000461A000062190000621A0000B7
:100A7000B21900007E1900008C190000AC190000AA
:100A80007C160000B116000070B50E4605460C46F7
:100A900054341421204601F0DBF89C20305CFE2108
:100AA000014004291FD168680668A53621487844AA
:100AB0001422314601F0E2F8002821D02048784481
:100AC0001422314601F0DAF8002812D1E868C07F1C
:100AD000032826D0012827D0022828D0002818D1A2
:100AE0001849794401E0E9680C311422204601F0EC
:100AF000B5F81948784414212246FFF741FF70BD2C
:100B0000E868C07F012809D0002802D10A49794449
:100B1000EBE71048784400F0FBFCEAE7074979442A
:100B2000E3E70B497944E0E707497944DDE7074902
:100B30007944DAE78A190000721900008E18000063
:100B40008E190000DE180000AA180000B818000076
:100B5000D8180000A81500002816000070B50C4633
:100B60000646683414252046294601F071F8F168DC
:100B70000C3120462A4601F071F803487844294692
:100B80002246FFF7FDFE70BDFE150000F8B50446D5
:100B90008568C16802695C48784400F0B9FC2E465B
:100BA00040365A4979441422304601F067F82F46FE
:100BB0009237002833D0564979441422304601F048
:100BC0005DF800282BD0534979441422304601F0B7
:100BD00055F8002823D0504979441422304601F0BA
:100BE0004DF8002868D04D4979441422304601F070
:100BF00045F8002860D04A4979441422304601F073
:100C00003DF800280BD0E168002959D0C87F7870E2
:100C100028467C3014310B2201F0ACF901E012209F
:100C2000787038780121014339702E4654363E4998
:100C300079441422304601F021F8002833D03B4992
:100C400079441422304601F019F800282BD0384995
:100C500079441422304601F011F8002823D0354998
:100C600079441422304601F009F8002826D0324990
:100C700079441422304601F001F800281ED02F4993
:100C800079441422304600F0F9FF00280BD0216986
:100C9000002922D0C87FB870873514310B2228462E
:100CA00001F068F901E01220B870387802210143A0
:100CB000397004206075F8BD0620B1E70620F3E71F
:100CC0001220787028467C30164979440B2201F0B6
:100CD00051F9207D401C2075A7E71220B870873598
:100CE000B87A032806D1164979440B22284601F028
:100CF00041F9DEE7134979440B22284601F03AF91D
:100D0000207D401C2075D4E746150000081800001F
:100D1000081800000C18000010180000141800003B
:100D200088180000EC1500007C17000080170000F8
:100D300084170000881700008C17000000180000BE
:100D400014160000C0150000B0B504468568C068E0
:100D500022691649794401F00DF99C20295C081F8D
:100D60000B2802D21749794412E0032908D310292D
:100D700009D00F290AD0032911D10E49794407E07F
:100D80000B49794404E00D49794401E00A4979446A
:100D90006069A26901F0EEF804202077B0BD084830
:100DA000784400F0B5FB0020F7E7C046E4130000EC
:100DB00083130000C8130000F11400007A1500002E
:100DC00017150000A9130000F0B587B00446C569E7
:100DD0000595406AA16A00F03BFFE06A216B00F0D4
:100DE00037FF2146203104260E7520200390275C12
:100DF00092202A5C03201346034092350495042F69
:100E0000069121D002251146294001263240012FAA
:100E100022D0022F44D0032F47D0002F00D096E0DD
:100E20005F425F41D81E464246413E43531E9A41AF
:100E30003243431E9841002E00D04600002A00D1C4
:100E40002E46002A29D035E0032B00D00326032BA1
:100E500030D0002B2ED07AE002940498877A0F3F8E
:100E60000126022F304600D30020DC1E654265417A
:100E7000054358425841022F00D203262843002D33
:100E8000029C00D12E46002800D10226531E9A4112
:100E9000104300D1064600280CD1002957D009E0A4
:100EA000032B5CD0002B72D1ADE0002B00D00646A6
:100EB000032B4CD0032E52D0012E68D0022E00D12D
:100EC000A1E0002E43D1059D2E464036FB497944D2
:100ED0001422304600F0D2FE002800D1AAE0F849E2
:100EE00079441422304600F0C9FE002800D1ABE05E
:100EF000F44979441422304600F0C0FE002800D1A5
:100F0000ACE02E465436F04979441422304600F0C5
:100F1000B5FE002800D137E1EC497944142230466F
:100F200000F0ACFE002800D133E1E94979441422F5
:100F3000304600F0A3FE0028049E00D031E1284690
:100F40007C30E44979440B2201F014F829E1E248AD
:100F5000784400F0DDFA0020069908750FE2606A17
:100F6000A26ADE49794401F005F8E06A3021017097
:100F7000E06A7821417020680268E36A00210091EC
:100F8000019105986830991CFFF7A6F8F7E1059DD7
:100F90002E465436D24979441422304600F06EFE73
:100FA00000283DD0CF4979441422304600F066FE37
:100FB00000283AD0CC4979441422304600F05EFE35
:100FC00000283CD0C94979441422304600F056FE2E
:100FD00000283ED0C64979441422304600F04EFE27
:100FE000002840D0C34979441422304600F046FE20
:100FF0000028049E3FD128468730E24979440B22DD
:1010000000F0B8FF37E0606AA26ADF49794400F077
:10101000B1FFE06A226BDD49794400F0ABFFAEE13D
:10102000284687302146103121E028468730F04994
:1010300079441CE028467C3021461031ADE028463A
:101040008730EC49794412E028467C30D049794415
:10105000A3E028468730E849794408E028467C30F8
:10106000CC49794499E028468730E44979440B22F9
:1010700000F080FF049E03987071606AA26AE049E4
:10108000794400F077FFB17A081F052800D24EE1BD
:10109000481E02282ED30E293FD0032948D0092903
:1010A0001DD00A2955D00B2919D00C295CD00D2947
:1010B00015D0002900D0B5E060680168254662249B
:1010C0000A5D05982030423100F0C8FD686800686C
:1010D000005D2C46059D7071284687301AE0284631
:1010E00020302022294600F0B9FD28468730CC491F
:1010F000794443E060680168A531C248784414220D
:1011000000F0BCFD014628468730002902D0C049C6
:10111000794409E1BC49794406E12846203020227F
:10112000294600F09BFD28468730C049794425E0D8
:1011300060680168A531B7487844142200F09EFD2C
:10114000014628468730002900D1EBE0B3497944B5
:10115000EAE0284620302022294600F07FFD28467C
:101160008730B049794409E02846203020222946BA
:1011700000F074FD28468730AB4979440B2200F01B
:10118000F9FE1220B070D2E028467C3082497944C2
:1011900003E028467C30814979440B2200F0EAFEC6
:1011A000049E03987071606AA26A7D49794400F0D8
:1011B000E1FEB17A081F052800D2D0E0102936D010
:1011C00001294AD0022953D0032956D0092960D0D9
:1011D0000A2922D00B2961D00C291ED00D2962D0FA
:1011E0000E291AD00F2900D186E000291AD1606A91
:1011F000A26A6C49794400F0BDFE6068016825462A
:1012000062240A5D4231059800F028FD6868006894
:10121000005D2C46059D7071A1E028467C306A492E
:10122000794444E08248784400F072F993E6606AB9
:10123000A26A6949794400F09DFE60680168A531A1
:1012400066487844142200F019FD014628467C3097
:1012500000297FD0634979447EE0606AA26A5249DE
:10126000794400F087FE28467C305049794473E089
:10127000606AA26A5C4979446FE0606AA26A4C497C
:10128000794400F077FE60680168A53149487844E8
:101290003DE028467C304949794408E028467C30C6
:1012A0004749794403E028467C30464979440B227B
:1012B00000F060FE1220707051E0C046B2150000D0
:1012C000CC140000CE140000CC140000CE1400009A
:1012D000D014000095130000341300000D1300001B
:1012E000EA140000061400000A1400000E140000A6
:1012F0001214000016140000606AA26A334979448F
:1013000000F038FE60680168A53131487844142245
:1013100000F0B4FC014628467C30002917D02D4946
:10132000794419E03C4979440B2200F023FEB2785D
:101330007179E06A236B009001932846203087354D
:101340002B46FFF774F8E16A3048784415E01A49F3
:10135000794401E0224979440B2200F00BFE7278B7
:101360007179E06A236B009001932B467C33284609
:10137000FFF75DF8E16A1D48784400F0C9F807B04E
:10138000F0BDC046DD12000086100000E111000033
:10139000FF120000CB100000C20E0000C70F0000BB
:1013A000E10E000015110000A9100000850F0000DB
:1013B000C40E000082110000FD0F0000411000006B
:1013C000AE0D0000B30E00000D0F0000810F0000F5
:1013D000181100000D0E0000CE100000E2110000F8
:1013E000DC0D0000FB0F0000931000002D0F00002B
:1013F0001D130000E9100000F80F0000F3100000BA
:101400004111000014130000371200000810000002
:101410001D100000D8120000EE0D0000FD0F0000AE
:101420003D10000075110000D60E000033100000C2
:10143000B810000080B5024683204000824217D0D9
:1014400081204000824217D0FF20034604339A4295
:1014500016D041239B009A4216D0034606339A4287
:1014600016D00230824217D10846FFF79FF880BDA0
:101470000846FFF7A9FC80BD0846FFF70DF980BDBF
:101480000846FFF71BF880BD0846FFF77FFB80BDCD
:101490000846FFF759FC80BD02487844114600F029
:1014A00037F880BDA10D0000F8B5054878440190DB
:1014B000012003900002029001A800F0B9F98FBD4D
:1014C000B80C000080B5002000F0E4F980BDD4D451
:1014D0000446724604487844214600F019F800F0AA
:1014E000D1F9214600F004FD420D0000BCB50C46C8
:1014F000054601A881705F210170210A4170032116
:1015000000F0B6F9A1B2284600F0B2F9BCBDD4D4BF
:1015100083B0F0B58EB013AC0EC4002800D163E1E7
:10152000074613A80890012003903878002800D1BE
:101530005AE13C460025002805D0252803D0601933
:1015400040786D1CF7E720462946FFF7CFFF671963
:10155000605D2528E9D16019471C002420260794E6
:101560002246104639787F1C00222D29F9D00A46E0
:10157000303A0A2A16D3252944D02A2904971ED0A6
:101580002E2927D138782A287DD1049840784828F8
:1015900003D0732801D0682875D1049F7F1C0122D5
:1015A000089812E030220B465340234300D03246C5
:1015B0000A2363435C18303C16460246D1E738786C
:1015C000732860D102220898049F011D08910068C9
:1015D0000790C6E7482917D058291AD0632925D083
:1015E00064292DD0834A7A440692682937D070291D
:1015F00005D0732936D0752949D0782943D1019671
:10160000002008E0781E17E005947B497944069194
:1016100026E0019601200090039F0898011D089183
:10162000006805900D90102006903CE00898011D80
:10163000089100680D900DA80121FFF757FF74E78E
:101640000898011D089100680D900A210028019654
:10165000069100D5B7E005900020009022E00594A7
:10166000039901E005940021089A131D0893C0B264
:101670001768002874D0012879D0022878D13878EA
:10168000002800D1A6E061487844052164E0019675
:101690000898011D0891006805900D9000200090A9
:1016A0000A200690039F39465648784407900291D5
:1016B000C8193840261A751E0024069821463A4655
:1016C000234600F09FF94A1E9141059A904205D8A1
:1016D000002903D16D1E761E0746EDE7029800280B
:1016E0000398019A09D1D1B200203029044604D1CF
:1016F00009A82D21017001240398B11E0D2907D8D6
:10170000069E002D05D009A90A556D1E641CF8E738
:10171000069E0028059D03D109A82D210155641CB2
:101720000098002814D138487844079010E02846E3
:10173000394600F0BBF8314600F03EF90798405CAE
:1017400009A908553846314600F0B0F80746641C30
:10175000002FECD109A82146FFF7C8FE049FE4E65C
:1017600000203A5C401C002AFBD1451E00E0079D8A
:10177000002914D0002DF1D03E783009069C2018A5
:10178000079501252946FFF7B1FE0F2030402018AC
:101790002946079DFFF7AAFE7F1C6D1EEAE7384623
:1017A0002946FFF7A3FE049F0598A84200D8BCE68F
:1017B0002C1A002C00D1B8E6114878440121FFF71B
:1017C00095FE641CF5E7404205900D9000210091C4
:1017D000039F69E70798441C084878440121FFF7F4
:1017E00085FE641EF8D1DEE70EB0F0BC01BC03B08C
:1017F0000047C0467A0E0000640E0000E0080000BA
:1018000000090000C60D0000380D0000AA0B000002
:1018100001DF002900D170470846FFF759FEE0B507
:1018200000200190009001206946FFF7F1FF8CBD78
:10183000E0B500210191009002486946FFF7E8FFFA
:101840008CBDC0466700000182B000200190682076
:101850006946FFF7DDFFFFDE82B0002101910090B5
:1018600002486946FFF7D4FFFFDEC0469A00000138
:10187000E0B50191009002486946FFF7C9FF8CBDB1
:1018800083000002E0B50020019087206946FFF741
:10189000BFFF8CBDE0B50021019100900248694670
:1018A000FFF7B6FF8CBDC0460B01000100224308C4
:1018B0008B4274D303098B425FD3030A8B4244D318
:1018C000030B8B4228D3030C8B420DD3FF2209025A
:1018D00012BA030C8B4202D31212090265D0030B19
:1018E0008B4219D300E0090AC30B8B4201D3CB030F
:1018F000C01A5241830B8B4201D38B03C01A524151
:10190000430B8B4201D34B03C01A5241030B8B4252
:1019100001D30B03C01A5241C30A8B4201D3CB023D
:10192000C01A5241830A8B4201D38B02C01A524122
:10193000430A8B4201D34B02C01A5241030A8B4225
:1019400001D30B02C01A5241CDD2C3098B4201D33D
:10195000CB01C01A524183098B4201D38B01C01ABB
:10196000524143098B4201D34B01C01A5241030932
:101970008B4201D30B01C01A5241C3088B4201D3E1
:10198000CB00C01A524183088B4201D38B00C01A8E
:10199000524143088B4201D34B00C01A5241411AB5
:1019A00000D20146524110467047FFE701B50020C2
:1019B00000F006F802BDC0460029F7D076E7704770
:1019C0007047C046002B11D1002A0FD1002900D149
:1019D000002802D00021C943081C07B4024802A114
:1019E0004018029003BDC046D9FFFFFF03B468460C
:1019F00001B5029800F030F8019B9E4602B00CBC85
:101A00007047C046F0B5CE46474615042D0C2E0053
:101A100080B50704140C3F0C9946030C7E435D43CC
:101A2000674363437F19340CE4199C46A54203D9EC
:101A300080235B029846C4444B4643435143250CE4
:101A400036046544360C2404A4195B195918200087
:101A50000CBC90469946F0BDF0B557464E464546FB
:101A6000DE46E0B5040083B00D00924699468B42F5
:101A700030D82DD04946504600F0C0F82900060065
:101A8000200000F0BBF8331A9846203B9B4633D425
:101A90005A465346934042461F00534693401E0009
:101AA000AF423AD8AF4200D17BE05B46A41BBD41B8
:101AB000002B00DA78E0002200230092019301233A
:101AC0005A4693400193012342469340009328E0F5
:101AD0008242CFD900220023009201930C9B002B5D
:101AE00001D01C605D600098019903B03CBC904639
:101AF0009946A246AB46F0BD424620239B1A524669
:101B0000DA40414613004A468A40170042461F43C6
:101B1000534693401E00AF42C4D9002200230092D6
:101B200001934346002BD9D0FB079C4661467208BF
:101B30000A437B0846460EE0AB4201D1A2420CD8D4
:101B4000A41A9D41012024196D410021013E241851
:101B50004D41002E06D0AB42EED9013E24196D4115
:101B6000002EF8D1009801995B4600196941002BBD
:101B700025DB2B005A464446D3402A00E2401C0095
:101B80005B461500002B2BDB26005F46BE40330072
:101B900026004746BE403200801A994100900191CC
:101BA0009CE7A342B9D880E74246202300219B1A34
:101BB0000022009101920122DA40019283E742461D
:101BC00020239B1A2A0046469A402300F3404446AD
:101BD00013432A00E2401C005B461500002BD3DAB9
:101BE0002023424626009B1ADE402F00B44646467C
:101BF000B74066463B003343CAE7C04610B50029EC
:101C000003D100F007F8203002E0081C00F002F8D1
:101C100010BDC0461C2101231B04984201D3000CB7
:101C200010391B0A984201D3000A08391B0998424F
:101C300001D30009043902A2105C40187047C04665
:101C40000403020201010101000000000000000085
:101C500010B5002200F00AF810BDC04610B500F023
:101C600035F810BD10B500F085F810BD130010B5A3
:101C70000A00190000F0DCF810BDC04630B5032A98
:101C80000CD903000B439B071CD103680C68A342CB
:101C900018D1043A04300431032AF6D8551E002A1C
:101CA0000ED002780C7894420ED10135012301390F
:101CB00004E0C25C0133CC5CA24205D1AB42F8D156
:101CC000002030BD551EECE7101BFAE7F0B5C64604
:101CD00000B50F2A43D90B00032603431E400C0016
:101CE0000300002E40D11500103D2D09AC462D01FA
:101CF000A846804400E03B00676825685F60E768AD
:101D00001D60DF601F00A56810379D6010344345DB
:101D1000F1D165460F230C2401352D0149191340DB
:101D20004519144223D08C59AC5104369C1B032C0A
:101D3000F9D80324043B9B0801339B002240ED1893
:101D4000C918561E002A07D0002300E02300CA5CF1
:101D50005C1CEA549E42F9D104BC9046F0BD0500DB
:101D6000561E002AF0D1F7E7561E0500ECE71A00D0
:101D7000F6E7C046F0B5C64600B588420CD98B18C8
:101D8000984209D2531E002A03D0CA5CC254013BB8
:101D9000FBD204BC9046F0BD0F2A0CD80500561E9D
:101DA000002AF6D0002300E02300CA5C5C1CEA5441
:101DB0009E42F9D1EDE70B00032603431E400C00C1
:101DC0000300002E2ED11500103D2D09AC462D012B
:101DD000A846804400E02B001D00276810351F60D6
:101DE00067685F60A7689F60E7681034DF604345FD
:101DF000F1D165460F230C2401352D0149191340FB
:101E00004519144211D08C59AC5104369C1B032C3B
:101E1000F9D80324043B9B0801339B00ED18C91833
:101E20002240BCE7561E0500BCE71A00B7E7C046D3
:101E3000F0B5050083074AD0541E002A44D0CEB224
:101E40000300032202E00135013C3DD301332E7033
:101E50001342F8D1032C2FD9FF220A401502154353
:101E60002A0415430F2C35D92700103F3F093E01A6
:101E7000B4461E001A001036664415605560956021
:101E8000D5601032B242F8D10F260C2201373F0143
:101E90002640DB193700224217D03E1FB608B40097
:101EA000A4461A001C1D644420C2A242FCD1032493
:101EB0000136B6009B193C40002C05D0C9B21C1954
:101EC000197001339C42FBD1F0BD3400F4E71400DB
:101ED0000300BFE72700E0E7F0C041464A4653460B
:101EE0005C466D4676467EC02838F0C800207047B4
:101EF00010307CC890469946A246AB46B54608C805
:101F00002838F0C8081C00D10120184770B5002AF5
:101F10002AD00378002B29D08418030002E01D7812
:101F2000002D18D00133A342F9D1261A921B16D0E6
:101F30000D780B00002D0AD0012A02D02570013A3D
:101F4000013401331D78002DF6D15B1AF6180023F9
:101F50002370300070BD1C00261A921BE8D10800C7
:101F600000F02EF83618F4E70026F8E70400002603
:101F7000DEE7C046F0B5002A13D0013A002A19D096
:101F800000234F1C461C02E001339A4216D0F5187C
:101F9000AC46CD5CFC18C554002DF5D1601A013853
:101FA000F0BD0C00230001335A1E12781C00002AD9
:101FB000F9D1F3E70C0000230370F3E76046FAE77A
:101FC00010B5830727D00378002B26D00300032108
:101FD00002E01A78002A1CD001330B42F9D11968AB
:101FE0000F4A104C8A188A4322420FD104331968D1
:101FF0000B4A8A188A43224208D104331968084AD6
:102000008A188A432242F1D000E001331A78002A6C
:10201000FBD1181A10BD0300E1E70020FAE7C04623
:10202000FFFEFEFE8080808010B500290BD0037873
:10203000002B0CD04418030002E01A78002A04D0C8
:102040000133A342F9D1080010BD191AFBE70021A2
:10205000F9E7C04644414900506C7567696E2070CD
:102060006172616D657465727320737472756374E7
:10207000757265206973206269676765722074688C
:10208000616E20616C6C6F7765642073697A650A94
:102090000053656E64005741524E494E47006F65CC
:1020A000746820706C7567696E2070726F766964F1
:1020B0006520706172616D657465723A2000200060
:1020C000506172616D206E6F7420737570706F72E5
:1020D0007465640A00544F4B454E2053454E543AA4
:1020E00020004F45544820706C7567696E207072EF
:1020F0006F7669646520746F6B656E3A2030782561
:10210000702C20307825700A004D696E74002530DF
:1021100032780053776170004C5354204D49580079
:10212000544F4B454E2052454345495645443A206D
:10213000004F55534400574F455448004F7269674C
:10214000696E20446546690052656465656D005599
:102150005344204D4958004F46465345543A202594
:10216000640A005553444300457468657265756D93
:1021700000436F756E7465723A2025640A0042450B
:102180004E45464943494152593A20003000536573
:102190007474696E6720616464726573732072651C
:1021A00063656976656420746F3A200050617261DE
:1021B0006D206E6F7420737570706F727465643A01
:1021C0002025640A0052656365697665204D696E55
:1021D00000457863657074696F6E203078257820CB
:1021E0006361756768740A00544F4B454E5F5345F1
:1021F0004E543A20007366727845544800556E6B11
:102200006E6F776E20746F6B656E003031323334D1
:1022100035363738396162636465660065786365B1
:102220007074696F6E5B25645D3A204C523D307866
:10223000253038580A004552524F52003078005528
:102240006E68616E646C6564206D6573736167654B
:102250002025640A00574F55534400536574746930
:102260006E6720616464726573732073656E742099
:10227000746F3A200042656E6566696369617279C0
:10228000000A005772617000526563656976656483
:1022900020616E20696E76616C696420736372657B
:1022A000656E496E6465780A00414D4F554E542065
:1022B00053454E543A2025730A000053656C6563FC
:1022C000746F7220496E646578203A2564206E6FC1
:1022D0007420737570706F727465640A005553448E
:1022E0005400556E68616E646C65642073656C653E
:1022F00063746F7220496E6465783A2025640A0021
:10230000554E49545300556E7772617000446570A4
:102310006F736974004D697373696E672073656CC0
:102320006563746F72496E6465783A2025640A00AB
:1023300053656C6563746F7220496E6465782025FF
:1023400064206E6F7420737570706F727465640AA8
:10235000004F45544800414D4F554E54205245437F
:1023600045495645443A2025730A00D4B00DE3D0C0
:102370007DE943D4F6296E157323BC7C2421F03DFE
:10238000D67E41A624A43C35598D4BC089F34B41E0
:10239000960BAA35539093CB46C781590F5A098A99
:1023A000FD1FC1BF6981B6C6653F556E527608BA3A
:1023B000856C4EFB76C1D1AE02E20CEB03A2A6A067
:1023C0008B0B8DC32A8E1E676EC238D8A992307BC4
:1023D000495B45B3FEAA5E866B175474E89094C4BB
:1023E0004DA98B954EEDEAC495271D0FA0B86991B4
:1023F000C6218B36C1D19D4A2E9EB0CE3606EB4803
:10240000DAC17F958D2EE523A2206206994597C1FA
:102410003D831EC739254033945AA2E4809CC2975D
:102420007E7087BEE48BD7ABDCEE70654261AF2176
:10243000C44C093C300ED3BB97B7819294B17476EB
:10244000A93B3262D87B9A326965D1E91F9C13E7B8
:1024500087650D7BBFC3A9F10587D777820667170C
:1024600019D9910D3031323334353637383961620C
:10247000636465663031323334353637383941423A
:10248000434445460000000000000000000000003A
:102490000000000000000000D4D4D4D4D4D4D4D49C
:1024A000D4D4D4D4D4D4D4D4D4D4D4D4D4D4D4D4EC
:1024B000D4D4D4D4D4D4D4D4D4D4D4D4D4D4D4D4DC
:1024C000D4D4D4D4D4D4D4D4D4D4D4D4D4D4D4D4CC
:1024D000D4D4D4D4D4D4D4D4D4D4D4D4D4D4D4D4BC
:1024E000D4D4D4D4D4D4D4D4D4D4D4D4D4D4D4D4AC
:1024F000D4D4D4D4D4D4D4D4D4D4D4D4D4D4D4D49C
:04000005C0DE000158
:00000001FF
