:02000004C0DE5C
:10000000B0B58CB0044662B601F06BFC6D46284674
:1000100002F0A4F9A88585B26846002D0BD101F045
:1000200079FE0A9001F054FC002C17D101F040FC3D
:1000300000200CB0B0BD002181850A9801F06AFE55
:100040000F48854201D0072D02D1204601F026FC41
:100050000D487844294601F06BFC06E02068094908
:10006000884202D0616801F0DDFB01F049FE69467B
:10007000884202D10A9801F04DFE01F021FEC046EF
:1000800002650000FF010000FF25000003B40148E5
:1000900011E000004400000003B401480BE0000040
:1000A0004700000003B4014805E0000059000000CB
:1000B00003B40248FFE70249084700008600000039
:1000C00001002100F0B591B0019202910546012294
:1000D00016980146039291431E224A4017990A43FB
:1000E0000026002A324615D104AF33243A4623466F
:1000F00000F058F83846214602F0D8F93B18221A89
:1001000026497944184602F043F93846214602F060
:10011000CDF9024604A800928018214F7F44A95DC2
:100120000F240A092140795C4170B95C0170801C80
:10013000761C142EF3D1019E304600F071F8009A1F
:10014000283204A930460B4600F074F80020029EC5
:1001500004E0795C3154401C282819D002460399E8
:100160000A404308E95C002A03D021400929F0D95C
:1001700002E009090929ECD904AEF35C92000426D7
:100180005640F3401A07795C00D52039029EE1E71A
:1001900028200021315411B0F0BDC046BA2500001E
:1001A0006F250000F0B587B002930B46054600208E
:1001B00001920690C7B2781C029988422BD20A2479
:1001C00000262846194622460593334601F03CFE98
:1001D000049003912246334601F056FE281A30213E
:1001E0000143019AD155069C601C0921491B3146E7
:1001F000059B9941049D039BDBD3C0B21654200696
:1002000007D0D05D915DD15590557F1E761CBE42C2
:10021000F7D307B0F0BD014801F068FB02650000AC
:1002200080B501210902FFF73DFF002800D180BD04
:1002300001F05CFBB0B582B015460A4604462020AA
:1002400000930190012120462B46FFF725FF00284F
:1002500004D12046FFF71AFF02B0B0BD01F046FB03
:10026000F0B583B0029314460E460746012907D124
:100270003878302804D1029802283DD200256FE05A
:10028000089BB34222D2B11C002502980191814201
:10029000294645D80020F11A04D03A5C2254401C6B
:1002A0008142FAD1002B024602D02E212154421C59
:1002B000B042114632D2331A3818114606786654C5
:1002C0005B1E401C491C002BF8D127E0D91C0025DF
:1002D000029801918142294622D8991B2E206070F4
:1002E0003020207000290DD0A01C3022009101F098
:1002F000FFFE0098821C06E0002060703020207015
:1003000001252DE00222002E114607D01146387833
:1003100060547F1C761E491C002EF8D100206054CA
:100320000298019B83421BD88A420ED2002303E02D
:10033000521C9142034609D0002B104600D01846AB
:10034000A35C302BF4D00020F2E700200125002828
:1003500006D000212154401E225C2E2A00D12154B7
:10036000284603B0F0BDD4D4F0B58BB014460A468D
:10037000202901D900263AE01D46014600260A96AA
:10038000099608960796069605960496039603AF77
:10039000B81A203001F0A4FE2021384600F056F8AB
:1003A000002809D0022D22D32749794420462A4625
:1003B00002F022F801261AE0002003A90A5A52BAD4
:1003C0000A52801C2028F8D103A8202100F03EF812
:1003D0004742474100280DD02E46A119AD1B2046AB
:1003E0002A4601F081FE0020605501267E403046FD
:1003F0000BB0F0BD0095002DF7D0009E0194029641
:100400000024204603AD295B000446180A27304625
:10041000394601F08DFC28534743F01BA41C202CC7
:10042000F0D130210843029E761E019CA05503A8FE
:10043000202100F00BF847424741002802D1002E4E
:10044000DDD1D2E7009DC8E762220000B0B54B1EA7
:100450000A469A4100290ED00378002B0BD10123C4
:100460001C468C421A4600D30022A14203D0055DEF
:10047000641C002DF5D001205040B0BDF0B59DB0FA
:10048000039302920C46054604AF64263846314673
:1004900001F020FE284621463A463346FFF764FF26
:1004A00000282CD0239E229D04A8642101F0FEFF89
:1004B00001900B21039801F0F9FF0446C7B2B7423F
:1004C000324600D83A462846039901F009FE002F2B
:1004D00002D02020E855641C029801990090E0B2F7
:1004E0002A18C0438319C9B204A8FFF7B9FE00282F
:1004F00005D07019401E002101701DB0F0BD07200D
:1005000001F0F4F9F0B581B0044602274777856819
:100510009C202E5CF01F012809D8A069294668316B
:10052000142201F0EDFD002801D0032060770F3E7A
:10053000012E0AD8A06929466831142201F0E0FD95
:10054000002802D1607F401E60772E464036164953
:1005500079441422304601F0D3FD002805D0134819
:100560007844314600F028F803E0284600F03CF8D3
:100570000026E6602E4654360D4979441422304652
:1005800001F0BEFD002805D00A487844314600F04D
:1005900013F803E0284600F030F800260420A07786
:1005A0002777266101B0F0BDB42300007B21000055
:1005B0008A2300008420000070B50C4601F0B8F9D1
:1005C0000026074D7D44A15D284601F0B1F9761C57
:1005D000142EF8D10348784401F0AAF970BDC04642
:1005E000CA1F00002B2100009221425C012313430B
:1005F000435492301221417070479221425C022391
:10060000134343549230122181707047F0B581B08A
:1006100004460078012706285BD120699D2805D86B
:100620002D48784401F084F9002752E0E5689E21C6
:10063000284601F04FFD606900F056F82E469C36C2
:10064000314600F05DF8002843D195353678062E06
:1006500005DD30460938082812D2032737E0022E7C
:1006600006DC002E2DD0012EF7D0022E0CD021E07A
:10067000301F02280AD3032EEFD0062E04D019E033
:10068000072E20D0082E15D1002720E0A068016891
:10069000A531124878441422009101F031FD002761
:1006A000002814D00E4878441422009901F028FD47
:1006B00000280CD00B487844314601F039F9002766
:1006C00007E0082703E02878801C28700527EF70D2
:1006D0000427677001B0F0BDB61E0000282200009C
:1006E0002A220000DF200000017809064278120467
:1006F0005118827812028918C07808187047D4D42B
:1007000070B50D4B7B441A68824204D1002201244B
:100710000A70601E70BD00252A4607E00124102AD9
:10072000F7D2521C96009E598642F1D0102AF5D37A
:100730002C46102AF5D3ECE7E8200000B0B50546BA
:100740008468C26834487844202100F069F80420A5
:1007500028759520215C20469530002902D0491E3D
:100760000170B0BDC17907290CDC032913DC012914
:1007700026DC002939D0012946D12846214600F03F
:1007800079F8B0BD08460938062810D22846214617
:1007900000F032FAB0BD081F02281AD3062929D06A
:1007A000072931D12846214600F05EF9B0BD084640
:1007B0000F38022812D22846214600F037FAB0BD81
:1007C00002291CD003291FD12846214600F0A0F899
:1007D000B0BD2846214600F0BDF8B0BD082913D1B0
:1007E0002846214600F0CAF9B0BD2846214600F04F
:1007F00031F8B0BD2846214600F0E0F8B0BD2846EB
:10080000214600F059F8B0BD0448784401F090F852
:1008100000202875B0BDC046D81D0000A61F0000EE
:1008200070B514460D4601F083F8002D08D0074E30
:100830007E442178304601F07BF8641C6D1EF8D1AF
:100840000348784401F074F870BDC0465E1D000096
:10085000BF1E000010B504469820095C082905D089
:100860000348784401F064F80020207510BDC046AC
:10087000CA1D0000B0B504469820085C082817D0AF
:100880000D469835042807D003280BD1204600F0E8
:10089000EFF904202870B0BD204600F0F1F90820DF
:1008A0002870B0BD0348784401F042F8002020755C
:1008B000B0BDC0469A1C0000B0B504469820085C44
:1008C0000D469835032809DC002813D003280AD1E7
:1008D000204600F0CDF904202870B0BD04280FD0C8
:1008E000082800D1B0BD0948784401F021F8002063
:1008F0002075B0BD204600F0CDF903202870B0BDB2
:10090000204600F0BDF908202870B0BD581C00003A
:10091000B0B504469820085C082817D00D469835D5
:10092000042807D003280BD1204600F0A1F90420A9
:100930002870B0BD204600F0A3F908202870B0BD93
:100940000348784400F0F4FF00202075B0BDC04695
:10095000FE1B0000B0B504469820085C0D46983593
:10096000022806DD03280ED0042812D008281CD146
:10097000B0BD002813D0012817D1204600F0F6F9A9
:1009800003202870B0BD204600F072F904202870C2
:10099000B0BD204600F074F908202870B0BD204694
:1009A00000F078F901202870B0BD0348784400F0C9
:1009B000BFFF00202075B0BD941B0000F0B581B0D2
:1009C0000D4604469820085C0E469536022807DD41
:1009D00003281FD0042823D008282FD101B0F0BD50
:1009E000002823D0012829D131791C48784400F00F
:1009F0009FFF3779781C3071E0680C3018497944D2
:100A0000142201F07DFB002820D02046294600F06A
:100A1000ADF90FE02046294600F02AF904200AE04B
:100A20002046294600F02CF9082004E020462946FB
:100A300000F030F90120F07001B0F0BD09487844B1
:100A400000F076FF0020207501B0F0BD0320305289
:100A50003078C01B1330307001B0F0BD051C0000B1
:100A6000061F0000021B0000F0B581B00C460546D1
:100A70009820085C0E4695360F469A37032815DCF9
:100A8000012822DC002830D0012868D138881438A9
:100A9000C10E41181F229143401AE96809185434C5
:100AA0001422204601F01CFB022055E0052816DC2C
:100AB000042832D0052852D12846214600F0C2F938
:100AC0000320F0703078401C24E002282BD003284B
:100AD00045D12846214600F0CBF804203CE006280A
:100AE00030D008283BD101B0F0BDE968403414256E
:100AF00020462A4601F0F4FA1F4878442946224647
:100B0000FFF78EFE0120F07038881438C10E4018AF
:100B10004009401E307001B0F0BD2846214600F06B
:100B2000AFF8062018E038881438C10E41181F228B
:100B30009143421AA01A0C3A7430E96801F0D0FAD5
:100B4000082009E0E86800F095F901463880094876
:100B5000784400F0EDFE0020F07001B0F0BD0448D4
:100B6000784400F0E5FE0020287501B0F0BDC046D5
:100B7000E0190000871A00006E1B0000B0B50446A3
:100B80009820085C0D46953503280BDC002810D012
:100B9000012814D0032826D1204600F069F804204B
:100BA000E870B0BD04280FD0052813D008281AD14A
:100BB000B0BD204600F06EF80120E870B0BD2046C0
:100BC00000F0D4F8052009E0204600F059F808208C
:100BD000E870B0BD204600F035F90320E8702878B1
:100BE000401C2870B0BD0348784400F0A1FE0020EE
:100BF0002075B0BD58190000B0B504469820085CB7
:100C000008280FD0032807D10D469835204600F05C
:100C10002FF808202870B0BD0348784400F088FE03
:100C200000202075B0BDC04626190000B0B50446AE
:100C30009820085C082817D00D469835052807D05D
:100C400003280BD1204600F013F805202870B0BD12
:100C5000204600F0F7F808202870B0BD034878441B
:100C600000F066FE00202075B0BDC046E21800000E
:100C700080B50B46C1682022184601F031FA80BDCC
:100C800080B50B46C16820332022184601F028FAAF
:100C900080BDD4D470B50E4605460C4640341421B0
:100CA000204601F017FA9C20305CFE210140042907
:100CB0001DD168680668A53622487844142231465A
:100CC00001F01EFA00281FD0214878441422314632
:100CD00001F016FA002810D1E868C07F01281FDC57
:100CE000002829D0012822D11A49794401E0E96875
:100CF0000C311422204601F0F3F91B4878441421EA
:100D00002246FFF78DFD70BDE868C07F012804D042
:100D100000280CD10C497944EBE70C497944E8E709
:100D200002280CD0032802D10B497944E1E70D4891
:100D3000784400F0FDFDE0E708497944D9E7084927
:100D40007944D6E7021C0000EE1B0000141B0000D3
:100D5000061C00006E1B0000561B00000A1B000052
:100D60002C1B0000101800005918000070B50E462A
:100D700005460C4654341421204601F0ABF99C2062
:100D8000305CFE21014004291DD168680668A53643
:100D9000224878441422314601F0B2F900281FD0CD
:100DA000214878441422314601F0AAF9002810D1D4
:100DB000E868C07F01281FDC002829D0012822D143
:100DC0001A49794401E0E9680C311422204601F007
:100DD00087F91B48784414212246FFF721FD70BD96
:100DE000E868C07F012804D000280CD10C49794460
:100DF000EBE70C497944E8E702280CD0032802D13C
:100E00000B497944E1E70D48784400F091FDE0E7B3
:100E100008497944D9E708497944D6E72A1B0000F4
:100E2000161B00003C1A00002E1B0000961A000042
:100E30007E1A0000321A0000541A00003817000011
:100E4000CC17000070B50C460646683414252046C1
:100E5000294601F03FF9F1680C3120462A4601F09D
:100E60003FF90348784429462246FFF7D9FC70BD74
:100E70009A170000C17F807F0002401880B270473F
:100E800070B504468568C16802693948784400F045
:100E90004FFD2E469236284600F076F8002807D0FF
:100EA000284600F0BDF800281CD00420607570BDF5
:100EB000284640302F497944142201F021F90028B6
:100EC0002AD0E06800282FD0C07F7070E1682846E3
:100ED0007C3014310B2201F08FFA3078012101436C
:100EE0003170DDE72846543024497944142201F05A
:100EF00007F9002814D02069002822D0C07FB070E4
:100F00002169873514310B22284601F075FA3078B3
:100F1000022101433170C8E7284600F077F8BFE7A7
:100F2000284600F0BFF8C0E71220707028467C30D9
:100F3000114979440B2201F05FFA207D401C207595
:100F4000AEE71220B0708735B07A032806D10C497D
:100F500079440B22284601F04FFAA6E70949794463
:100F60000B22284601F048FA207D401C20759CE7A2
:100F7000D61600004E1A0000081800001A1A0000C9
:100F800030180000DC17000070B5044605464035F7
:100F9000194979441422284601F0B2F81226002893
:100FA00022D0164979441422284601F0A9F80028D5
:100FB0001AD0134979441422284601F0A1F80028D8
:100FC00012D0104979441422284601F099F80626D7
:100FD000002809D00C4979441422284601F090F8E1
:100FE000002801D0002070BD923466702178012065
:100FF0000143217070BDC0469E180000A01800007B
:10100000A4180000A8180000AA1800009221425C51
:101010000123134343549230122141707047D4D4BA
:1010200070B50446054654351949794414222846BA
:1010300001F066F81226002822D0164979441422BD
:10104000284601F05DF800281AD01349794414228B
:10105000284601F055F8002812D01049794414228E
:10106000284601F04DF80626002809D00C4979449D
:101070001422284601F044F8002801D0002070BD59
:101080009234A6702078022101432170012070BDA6
:1010900006180000081800000C18000010180000C6
:1010A000121800009221425C0223134343549230F1
:1010B000122181707047D4D4B0B504468568C068E9
:1010C00022691749794401F097F99C20295C03298A
:1010D00005DD081F0B2806D21449794411E009D216
:1010E000104979440DE00F2909D0102910D10E497B
:1010F000794406E003290BD10F49794401E00C49FA
:1011000079446069A26901F077F904202077B0BDC5
:101110000848784400F00CFC00202077B0BDC046A1
:10112000F8140000A714000096160000B91400007F
:101130000316000029160000CE140000B0B50446C6
:10114000C569406AA16A00F0C5FFE06A216B00F042
:10115000C1FF3420042121542046294600F028F8FC
:10116000012808DC002817D001280DD12046294687
:1011700000F0F2F9B0BD022813D0032804D12046B4
:10118000294600F02FFBB0BD34340848784400F005
:10119000CFFB00202070B0BD2046294600F07AF831
:1011A000B0BD204600F00AFBB0BDC0467C15000073
:1011B000F0B52022855C92200E5C0320344604406A
:1011C00002230122012D0DDD022D31D0032D33D05C
:1011D000042D5CD1032C00D10420002C01D0032C61
:1011E00055D1F0BD33403240002D2DD0012D4ED1D0
:1011F00092318E7A0F3E0120022E014600D300214B
:10120000E71E7D427D410D4361426141022E00D2C5
:1012100003202943002D00D12846002900D10220B7
:10122000541EA241114300D1084600292DD0D8E711
:10123000032C20D10320F0BD002C18D00322032C56
:1012400017D104221046F0BD65426541E11E4842B7
:1012500048412843541EA24102434C1EA14100288C
:101260000ED1002A0FD10220002A0ED0B9E7032C9C
:10127000E7D01046F0BD002C00D001231846F0BD89
:101280004800002AEFD0002AABD1002BA9D10420BE
:10129000F0BDD4D4F0B583B00D4604460E464036BA
:1012A0008D4979441422304600F02AFF2F469337A7
:1012B00000282ED0894979441422304600F020FFBE
:1012C00000282BD0874979441422304600F018FFBB
:1012D000002828D02E4654368449794414223046BA
:1012E00000F00EFF002823D08249794414223046B2
:1012F00000F006FF002820D08049794414223046AF
:1013000000F0FEFE00281FD128467C307C4979443D
:1013100017E028467C302146103112E028467C3008
:101320006F4979440DE028467C306F49794408E0E4
:1013300028467C306E49794403E028467C306E496B
:1013400079440B2201F058F820203871606AA26AB3
:101350006C49794401F050F8797A082913DC0229A4
:101360001ADD081F052800D2A4E0032967D1606AAE
:10137000A26A6649794401F03FF860680168A531C6
:101380006348784483E00C2911DC0A2916DC09291A
:101390005ED00A2916D052E0002932D0012943D06C
:1013A00002294CD1606AA26A5749794480E00E292B
:1013B0000DDC0D2951D00E2904D040E00B2951D06D
:1013C0000C293CD128467C30534979444EE00F2902
:1013D00052D0102933D1606AA26A5949794401F088
:1013E0000BF860680168A53156487844142200F073
:1013F00087FE014628467C30002956D0534979445F
:1014000055E0606AA26A5249794400F0F5FF6068CD
:10141000016862268A5D4231284600F061FE6068FC
:101420000068805D387145E0606AA26A3C49794491
:1014300000F0E2FF28467C303A49794437E03748EB
:10144000784400F075FA34200021215403B0F0BD37
:1014500028467C303449794408E028467C303449B9
:10146000794403E028467C30304979440B2200F06F
:10147000C3FF122038701DE0606AA26A2D497944CA
:1014800000F0BAFF60680168A5312B487844142247
:1014900000F036FE014628467C30002902D027495C
:1014A000794404E01B49794401E0274979440B223F
:1014B00000F0A2FF3A783979E06A236B009001933B
:1014C0002B467C332846FEF7D9FFE16A2148784451
:1014D00000F02EFA03B0F0BD621600007A1500008D
:1014E000AF1400007E150000851200007E1500007C
:1014F0009E11000082150000A31200008615000056
:101500004F140000BF110000E3130000541200004C
:10151000121500002B130000E71100002213000039
:101520005F1300003B120000071300006A10000068
:1015300083110000851200001C140000111100002E
:10154000AA130000BE1400000A110000D712000008
:10155000851300005B120000F0B583B00D46044611
:101560000E4654367D4979441422304600F0C8FDB9
:101570002F46943700282CD07949794414223046DC
:1015800000F0BEFD002829D0774979441422304666
:1015900000F0B6FD002826D0754979441422304663
:1015A00000F0AEFD002823D0734979441422304660
:1015B00000F0A6FD002820D071497944142230465D
:1015C00000F09EFD00281FD1284687306D497944E0
:1015D00017E0284687302146103112E02846873030
:1015E000604979440DE0284687306049794408E035
:1015F000284687305F49794403E0284687305F49B1
:1016000079440B2200F0F8FE2020F870606AA26A8C
:101610005D49794400F0F0FE397A08291ADC032983
:101620007CDC481E02283AD3002948D0032900D088
:1016300087E060680168A5315B487844142200F0B7
:101640005FFD014628468730002900D182E05849D5
:10165000794445E00B2906DC092915D00A2943D035
:101660000B2911D06DE00C2949D00D290CD00E2981
:1016700067D1284620302022294600F031FD284637
:1016800087304449794444E02846203020222946C6
:1016900000F026FD284687303D49794439E06068EE
:1016A0000168A5313C487844142200F029FD014628
:1016B00028468730002911D03A49794410E0606803
:1016C000016862268A5D28462030423100F008FD1C
:1016D00060680068805DF870284687302F4979443B
:1016E0000B2200F089FE19E02846203020222946EE
:1016F00000F0F6FC284687302E49794409E0284658
:1017000020302022294600F0EBFC284687302A4969
:1017100079440B2200F070FE122038703A78F97884
:10172000E06A236B009001932846203087352B46D2
:10173000FEF7A4FEE16A1A48784400F0F9F803B015
:10174000F0BD1248784400F0F3F834200021215411
:1017500003B0F0BD15497944C2E7C0469E130000AE
:10176000B6120000EF110000BA120000C50F000011
:10177000BE120000DE0E0000C2120000E30F0000E7
:10178000C61200008F110000331000001E10000070
:10179000170F00005F0F0000EE110000F3100000B3
:1017A0009E100000F70E00005A120000420E0000CA
:1017B0007F0F000063100000C40D000010B5044648
:1017C000406AA26A0549794400F016FEE06A226B7D
:1017D0000349794400F010FE10BDC046500D0000D2
:1017E000AB0E0000B0B582B00C460546406AAA6A4E
:1017F0000B49794400F000FEE86A30210170E86A84
:101800007821417028680268E86A002100910191FE
:101810006834811C2046FEF755FC02B0B0BDC046BE
:10182000030F000080B50246FF20034604339A42AE
:101830000CDC0230824218D081204000824218D055
:101840009A4222D10846FEF75DFE80BD41239B00EF
:101850009A4212D00630824213D083204000824246
:1018600013D10846FFF76AFC80BD0846FEF7CEFE9E
:1018700080BD0846FEF762FF80BD0846FFF700FB0B
:1018800080BD0846FFF718FC80BD03487844114628
:1018900000F04EF880BDC046330E000083214900A1
:1018A00002688A4203D140683421002242547047C2
:1018B00080B584B00548784401900120039000026F
:1018C000029001A800F0EEF904B080BD320D0000D6
:1018D00080B500F0DCF90D2800D280BDFF2000F0BB
:1018E000F7F980B5002000F015FA80BD0446724675
:1018F00004487844214600F01BF800F001FA214624
:1019000000F038FDAA0D0000B0B582B00C460546C7
:1019100001A881705F210170210A4170032100F04C
:10192000E3F9A1B2284600F0DFF902B0B0BDD4D48B
:1019300083B0F0B58CB011AC0EC4002800D18CE19E
:10194000064611A806903078002800D185E10120D4
:10195000019004E076193078002800D17DE100255F
:10196000705D002803D0252801D06D1CF8E73046B3
:101970002946FFF7C9FF705D2528EBD17019461C79
:10198000002320240593184601E0104619D1317830
:10199000761C00222D29F8DD472937DC0A46303A2B
:1019A0000A2A1CD2039430221F460B4653403C4661
:1019B0003B4300D0039A0A2363435B18303B144631
:1019C000E5E725295DD02A2900D0EFE0307873289B
:1019D00000D0EBE00699081D0690022013E02E29A6
:1019E00000D0E3E030782A2800D0DFE07078482883
:1019F00004D0732802D0682800D0D7E0761C06995E
:101A0000081D0690012009680591C0E767290ADDD5
:101A1000944F7F44722911DD732934D0752935D054
:101A2000782911D0C2E0622918DC482900D1A9E048
:101A3000582900D0BAE00296012007E0682900D1B9
:101A4000A4E0702900D0B1E002960020049006982E
:101A5000011D069100680B90102520E0632900D13C
:101A6000A8E0642900D0A1E00698011D0691006855
:101A70000B900A250028029600D5D2E000200490A1
:101A80000DE0701E9CE01C46002181E00296069845
:101A9000011D069100680B90002004900A25019812
:101AA00006460B9905918D42039402D907460246DA
:101AB00016E05A1E0B98059028460746144600214A
:101AC00028463A460B4600F0DFF94A1E9141059A36
:101AD000904202D8621E0029EFD02346019A039C4F
:101AE00030465040191A002E02D0002614460BE052
:101AF000E2B20026302A344606D107AA1C462D231E
:101B0000137023460126019C8A1E0D2A0FD8491EF8
:101B10000DD04042009007A88019039AD2B20393D7
:101B200000F0E6FA0398301800994018461E002C81
:101B300003D107A82D218155761C002F1CD04E48BB
:101B40007844039012E0039C0598394600F0F0F8C1
:101B5000294600F073F9605C07A988553846294684
:101B600000F0E6F8761CBD42074605D80498002828
:101B7000E9D1424C7C44E7E707A83146FFF7C4FEB1
:101B8000029EE8E61C46394F7F4400E01C4601995E
:101B9000069A131D0693C3B21068002B14D0012BB4
:101BA00035D0022B16D10078002840D02E4878443A
:101BB000052106E00698011D069100680B900BA810
:101BC0000121FFF7A1FEC6E60023C25C5B1C002AD0
:101BD000FBD15D1E00291DD0002D20D002960026CD
:101BE00005950490845D2009381801252946FFF7E2
:101BF0008BFE0F20204038182946059DFFF784FEF4
:101C00000498761CB542EDD12F46029E19E0059D41
:101C10000029E1D12946FFF777FE274611E000278A
:101C20000FE040420B9000260496019839E72746C2
:101C30000598441C0E4878440121FFF765FE641E98
:101C4000F8D1AF4200D886E6EC1B0A48784401215F
:101C5000FFF75AFE641CF8D37DE60CB0F0BC01BC63
:101C600003B00047D20E0000080B00006C0D00000E
:101C700008090000F2080000B40D0000700D00001B
:101C800001DF002900D170470846FFF72FFE80B51D
:101C900082B000200190009001206946FFF7F0FF1C
:101CA00002B080BD80B582B0002101910090034850
:101CB0006946FFF7E5FF02B080BDC046670000013E
:101CC00082B00020019068206946FFF7D9FFFFDE4F
:101CD00082B000210191009002486946FFF7D0FFD1
:101CE000FFDEC0469A00000180B582B001910090ED
:101CF00002486946FFF7C4FF02B080BD83000002BE
:101D000080B582B00020019087206946FFF7B8FFB8
:101D100002B080BD80B582B00021019100900348DF
:101D20006946FFF7ADFF02B080BDC0460B01000160
:101D3000002243088B4274D303098B425FD3030A0A
:101D40008B4244D3030B8B4228D3030C8B420DD31D
:101D5000FF22090212BA030C8B4202D312120902AB
:101D600065D0030B8B4219D300E0090AC30B8B42E9
:101D700001D3CB03C01A5241830B8B4201D38B0397
:101D8000C01A5241430B8B4201D34B03C01A52413C
:101D9000030B8B4201D30B03C01A5241C30A8B427F
:101DA00001D3CB02C01A5241830A8B4201D38B026A
:101DB000C01A5241430A8B4201D34B02C01A52410E
:101DC000030A8B4201D30B02C01A5241CDD2C30980
:101DD0008B4201D3CB01C01A524183098B4201D3FC
:101DE0008B01C01A524143098B4201D34B01C01AE7
:101DF000524103098B4201D30B01C01A5241C3085F
:101E00008B4201D3CB00C01A524183088B4201D3CD
:101E10008B00C01A524143088B4201D34B00C01AB9
:101E20005241411A00D20146524110467047FFE725
:101E300001B5002000F006F802BDC0460029F7D029
:101E400076E770477047C046002B11D1002A0FD1AA
:101E5000002900D1002802D00021C943081C07B482
:101E6000024802A14018029003BDC046D9FFFFFFFF
:101E700003B4684601B5029800F030F8019B9E4615
:101E800002B00CBC7047C046F0B5CE4647461504BC
:101E90002D0C2E0080B50704140C3F0C9946030C42
:101EA0007E435D43674363437F19340CE4199C46CA
:101EB000A54203D980235B029846C4444B46434362
:101EC0005143250C36046544360C2404A4195B19CF
:101ED000591820000CBC90469946F0BDF0B5574605
:101EE0004E464546DE46E0B5040083B00D009246FE
:101EF00099468B4230D82DD04946504600F0C0F864
:101F000029000600200000F0BBF8331A9846203B59
:101F10009B4633D45A465346934042461F0053468D
:101F200093401E00AF423AD8AF4200D17BE05B46FF
:101F3000A41BBD41002B00DA78E0002200230092B0
:101F4000019301235A469340019301234246934053
:101F5000009328E08242CFD900220023009201930F
:101F60000C9B002B01D01C605D600098019903B0B0
:101F70003CBC90469946A246AB46F0BD4246202363
:101F80009B1A5246DA40414613004A468A401700DF
:101F900042461F43534693401E00AF42C4D900221D
:101FA0000023009201934346002BD9D0FB079C46A7
:101FB000614672080A437B0846460EE0AB4201D1F7
:101FC000A2420CD8A41A9D41012024196D41002180
:101FD000013E24184D41002E06D0AB42EED9013E01
:101FE00024196D41002EF8D1009801995B46001923
:101FF0006941002B25DB2B005A464446D3402A007A
:10200000E2401C005B461500002B2BDB26005F46E0
:10201000BE40330026004746BE403200801A994138
:10202000009001919CE7A342B9D880E74246202363
:1020300000219B1A0022009101920122DA400192B4
:1020400083E7424620239B1A2A0046469A402300F3
:10205000F340444613432A00E2401C005B4615004F
:10206000002BD3DA2023424626009B1ADE402F00A5
:10207000B4464646B74066463B003343CAE7C046CF
:1020800010B5002903D100F007F8203002E0081C49
:1020900000F002F810BDC0461C2101231B04984229
:1020A00001D3000C10391B0A984201D3000A0839E9
:1020B0001B09984201D30009043902A2105C4018A0
:1020C0007047C04604030202010101010000000044
:1020D0000000000010B5002200F00AF810BDC04654
:1020E00010B500F035F810BD10B500F085F810BD42
:1020F000130010B50A00190000F0DCF810BDC0464E
:1021000030B5032A0CD903000B439B071CD103688D
:102110000C68A34218D1043A04300431032AF6D8DB
:10212000551E002A0ED002780C7894420ED101354B
:102130000123013904E0C25C0133CC5CA24205D129
:10214000AB42F8D1002030BD551EECE7101BFAE77A
:10215000F0B5C64600B50F2A43D90B00032603434A
:102160001E400C000300002E40D11500103D2D092B
:10217000AC462D01A846804400E03B006768256816
:102180005F60E7681D60DF601F00A56810379D6015
:1021900010344345F1D165460F230C2401352D0140
:1021A000491913404519144223D08C59AC510436B7
:1021B0009C1B032CF9D80324043B9B0801339B0090
:1021C0002240ED18C918561E002A07D0002300E04F
:1021D0002300CA5C5C1CEA549E42F9D104BC9046C0
:1021E000F0BD0500561E002AF0D1F7E7561E050087
:1021F000ECE71A00F6E7C046F0B5C64600B58842DF
:102200000CD98B18984209D2531E002A03D0CA5CFD
:10221000C254013BFBD204BC9046F0BD0F2A0CD83F
:102220000500561E002AF6D0002300E02300CA5CF9
:102230005C1CEA549E42F9D1EDE70B0003260343F0
:102240001E400C000300002E2ED11500103D2D095C
:10225000AC462D01A846804400E02B001D002768F5
:1022600010351F6067685F60A7689F60E76810347B
:10227000DF604345F1D165460F230C2401352D0164
:10228000491913404519144211D08C59AC510436E8
:102290009C1B032CF9D80324043B9B0801339B00AF
:1022A000ED18C9182240BCE7561E0500BCE71A000D
:1022B000B7E7C046F0B5050083074AD0541E002A90
:1022C00044D0CEB20300032202E00135013C3DD3ED
:1022D00001332E701342F8D1032C2FD9FF220A406C
:1022E000150215432A0415430F2C35D92700103F3A
:1022F0003F093E01B4461E001A00103666441560C0
:1023000055609560D5601032B242F8D10F260C228C
:1023100001373F012640DB193700224217D03E1F0C
:10232000B608B400A4461A001C1D644420C2A24290
:10233000FCD103240136B6009B193C40002C05D08B
:10234000C9B21C19197001339C42FBD1F0BD340095
:10235000F4E714000300BFE72700E0E7F0C04146C0
:102360004A4653465C466D4676467EC02838F0C8DD
:102370000020704710307CC890469946A246AB4674
:10238000B54608C82838F0C8081C00D101201847F5
:1023900070B5002A2AD00378002B29D084180300B6
:1023A00002E01D78002D18D00133A342F9D1261A7E
:1023B000921B16D00D780B00002D0AD0012A02D0F6
:1023C0002570013A013401331D78002DF6D15B1AD6
:1023D000F61800232370300070BD1C00261A921BD3
:1023E000E8D1080000F02EF83618F4E70026F8E7E8
:1023F00004000026DEE7C046F0B5002A13D0013AFB
:10240000002A19D000234F1C461C02E001339A42D7
:1024100016D0F518AC46CD5CFC18C554002DF5D18E
:10242000601A0138F0BD0C00230001335A1E1278E7
:102430001C00002AF9D1F3E70C0000230370F3E736
:102440006046FAE710B5830727D00378002B26D023
:102450000300032102E01A78002A1CD001330B424A
:10246000F9D119680F4A104C8A188A4322420FD1B9
:10247000043319680B4A8A188A43224208D104336C
:102480001968084A8A188A432242F1D000E00133D1
:102490001A78002AFBD1181A10BD0300E1E70020CA
:1024A000FAE7C046FFFEFEFE8080808010B500295E
:1024B0000BD00378002B0CD04418030002E01A78EC
:1024C000002A04D00133A342F9D1080010BD191A23
:1024D000FBE70021F9E7C04644414900506C7567AD
:1024E000696E20706172616D6574657273207374BA
:1024F00072756374757265206973206269676765B8
:1025000072207468616E20616C6C6F7765642073F3
:10251000697A650A0053656E64005741524E494E10
:1025200047006F65746820706C7567696E20707203
:102530006F7669646520706172616D657465723A69
:1025400020002000506172616D206E6F74207375E1
:1025500070706F727465640A00544F4B454E20537F
:10256000454E543A20004F45544820706C756769B9
:102570006E2070726F7669646520746F6B656E3A59
:1025800020307825702C20307825700A004D696E37
:102590007400253032780053776170004C5354201A
:1025A0004D495800544F4B454E20524543454956DE
:1025B00045443A20004F55534400574F4554480076
:1025C0004F726967696E20446546690052656465AB
:1025D000656D00555344204D4958004F46465345BC
:1025E000543A2025640A00555344430045746865F5
:1025F0007265756D00436F756E7465723A2025645F
:102600000A0042454E45464943494152593A200045
:10261000300053657474696E672061646472657319
:102620007320726563656976656420746F3A200073
:10263000506172616D206E6F7420737570706F726F
:102640007465643A2025640A00526563656976659D
:10265000204D696E00457863657074696F6E203037
:10266000782578206361756768740A00544F4B457C
:102670004E5F53454E543A20007366727845544875
:1026800000556E6B6E6F776E20746F6B656E0030E9
:102690003132333435363738396162636465660008
:1026A000657863657074696F6E5B25645D3A204C74
:1026B000523D3078253038580A004552524F52006A
:1026C000307800556E68616E646C6564206D65736A
:1026D000736167652025640A00574F5553440053C2
:1026E000657474696E6720616464726573732073C6
:1026F000656E7420746F3A200042656E656669638A
:1027000069617279000A00577261700052656365F1
:102710006976656420616E20696E76616C696420FB
:1027200073637265656E496E6465780A00414D4F4A
:10273000554E542053454E543A2025730A000053F9
:10274000656C6563746F7220496E646578203A2504
:1027500064206E6F7420737570706F727465640A94
:10276000005553445400556E68616E646C65642076
:1027700073656C6563746F7220496E6465783A2086
:1027800025640A00554E49545300556E77726170A6
:10279000004465706F736974004D697373696E6787
:1027A0002073656C6563746F72496E6465783A2056
:1027B00025640A0053656C6563746F7220496E640A
:1027C0006578202564206E6F7420737570706F7249
:1027D0007465640A004F45544800414D4F554E54AE
:1027E0002052454345495645443A2025730A00D4B2
:1027F000B00DE3D07DE943D4F6296E157323BC7C7C
:102800002421F03DD67E41A624A43C35598D4BC0F1
:1028100089F34B41960BAA35539093CB46C7815908
:102820000F5A098AFD1FC1BF6981B6C6653F556E43
:10283000527608BA856C4EFB76C1D1AE02E20CEB43
:1028400003A2A6A08B0B8DC32A8E1E676EC238D83A
:10285000A992307B495B45B3FEAA5E866B17547420
:10286000E89094C44DA98B954EEDEAC495271D0FB1
:10287000A0B86991C6218B36C1D19D4A2E9EB0CE9B
:102880003606EB48DAC17F958D2EE523A22062063D
:10289000994597C13D831EC739254033945AA2E418
:1028A000809CC2977E7087BEE48BD7ABDCEE7065F0
:1028B0004261AF21C44C093C300ED3BB97B7819223
:1028C00094B17476A93B3262D87B9A326965D1E9BA
:1028D0001F9C13E787650D7BBFC3A9F10587D777D9
:1028E0008206671719D9910D3031323334353637B6
:1028F0003839616263646566303132333435363776
:1029000038394142434445460000000000000000C1
:10291000000000000000000000000000D4D4D4D467
:10292000D4D4D4D4D4D4D4D4D4D4D4D4D4D4D4D467
:10293000D4D4D4D4D4D4D4D4D4D4D4D4D4D4D4D457
:10294000D4D4D4D4D4D4D4D4D4D4D4D4D4D4D4D447
:10295000D4D4D4D4D4D4D4D4D4D4D4D4D4D4D4D437
:10296000D4D4D4D4D4D4D4D4D4D4D4D4D4D4D4D427
:10297000D4D4D4D4D4D4D4D4D4D4D4D4D4D4D4D417
:10298000D4D4D4D4D4D4D4D4D4D4D4D4D4D4D4D407
:10299000D4D4D4D4D4D4D4D4D4D4D4D4D4D4D4D4F7
:1029A000D4D4D4D4D4D4D4D4D4D4D4D4D4D4D4D4E7
:1029B000D4D4D4D4D4D4D4D4D4D4D4D4D4D4D4D4D7
:1029C000D4D4D4D4D4D4D4D4D4D4D4D4D4D4D4D4C7
:1029D000D4D4D4D4D4D4D4D4D4D4D4D4D4D4D4D4B7
:1029E000D4D4D4D4D4D4D4D4D4D4D4D4D4D4D4D4A7
:1029F000D4D4D4D4D4D4D4D4D4D4D4D4D4D4D4D497
:04000005C0DE000158
:00000001FF
