:02000004C0DE5C
:1000000070B58CB0044662B601F0E8F96D4628463A
:1000100001F0EEFEA88585B26846002D0DD101F0F5
:10002000C5FB0A9001F087FB0D281ED2002C1FD1C2
:1000300001F0C6F900200CB070BD002686850A9834
:1000400001F0B4FB1448854201D0072D07D183206D
:1000500040002168814202D16068342146540F4833
:100060007844294601F0E0F90BE0FF2001F080FB25
:10007000206883214900F931884202D0616801F08B
:1000800065F901F08BFB6946884202D10A9801F0BC
:100090008DFB01F065FBC046026500007F2000007B
:1000A00003B4014811E000004400000003B401481B
:1000B0000BE000004700000003B4014805E0000029
:1000C0005900000003B40248FFE702490847000056
:1000D0008600000001002100F0B591B0029203916A
:1000E0000546012616980146B1431E224A4017993B
:1000F0000A430024002A224616D104AA019233277B
:100100003B4600F057F80198394601F019FF019974
:100110000B183A1A25497944184601F083FE0198D4
:10012000394601F00DFF024604A801928018204FC5
:100130007F44142C0AD0295D0F220A40BA5C427019
:100140000909795C0170801C641CF2E7029C20465E
:1001500000F06CF8019A283204A920460B4600F002
:100160006FF8002028281BD0024632404308E95C83
:10017000002A02D00F24214000E00909092901D8F2
:10018000795C09E004ACE35C920004245440E34051
:100190001A07795C00D52039039A1154401CE1E715
:1001A00028200021039A115411B0F0BD3420000022
:1001B000E91F0000F0B587B002930B460546002406
:1001C0000192E7B2781C0299884229D20A2203924E
:1001D0000026284619460693334601F07FFB05901A
:1001E0000491039A334601F099FB281A3021014308
:1001F000019AD155641C0920401B3046069988415C
:10020000059D049BDDD3E0B21654BE4206D2D05DFC
:10021000915DD15590557F1E761CF6E707B0F0BD75
:10022000014801F0E1F8C0460265000080B50121F7
:100230000902FFF741FF002800D180BD01F0D4F88A
:10024000BCB515460A4604462020009301900121C2
:1002500020462B46FFF72AFF002803D12046FFF750
:100260001FFFBCBD01F0C0F8F8B501290AD1047820
:10027000302C07D1022B1AD3002050703020107080
:100280000120F8BD069F8F420ED28D1C9D420ED8D4
:10029000CD1B134606460097B9420AD034781C702D
:1002A0005B1C761C7F1CF7E7FD1C9D4212D90020C9
:1002B000F8BD009B002B2B4602D02E2353556B1C00
:1002C0004019D61800242F198F4211D2075D3755D7
:1002D000641CF8E72E235370302515703C467E1AB7
:1002E000B31C971C002E05D03D707F1C761EF9E7CD
:1002F00018190AE015190226711A022904D0067885
:100300006E54401C491CF8E76018002111548342C8
:100310000AD200291C4600D00C46D15C302900D0FE
:1003200000245B1C2146F2E70120002906D00023AF
:100330005354491E545C2E2C00D15354F8BDD4D4D0
:10034000F0B58BB00192202917D80E4607460093CE
:1003500003AD20242846214601F006FCA81B2030CE
:100360003946324601F006FC2846214600F050F896
:10037000002804D0009A022A30D2002642E0002051
:10038000009B202805D003A90A5A52BA0A52801CA1
:10039000F7E7029303A8202100F03AF80646002868
:1003A00023D1029800282BD000263046202E0DD0D5
:1003B00003AFB95B000444180A252046294601F022
:1003C00001FAB8534543601BB61CEFE730210843E0
:1003D000029A521E019902928854DBE70B49794434
:1003E000019801F053FD01260CE0019D029AA91825
:1003F0000098841A2846224601F0C0FB00202855A8
:10040000701E864130460BB0F0BDC046BC1C0000DB
:1004100010B500231A46994203D0845C531C002C6B
:10042000F8D08A4201D2002010BD012010BDF0B5E5
:100430009DB0039302920C46054604AF64263846ED
:10044000314601F091FB284621463A463346FFF7F4
:1004500077FF00282ED0239E229D04A8642101F05E
:100460006FFD01900B21039801F06AFD0446C7B2AD
:10047000B742324600D83A462846039901F07AFB43
:10048000002F04D02020E855601CC0B200E00020FE
:10049000029900912A18C04383190198C1B204A897
:1004A000FFF7E2FE002805D07019401E0021017000
:1004B0001DB0F0BD072000F097FFD4D4F8B5044676
:1004C000022000906077A5689C20285CC01F01284E
:1004D00009D8A06929466831142201F05BFB002885
:1004E00001D0032060772F4692372E4640361949B7
:1004F00079441422304601F04DFB002805D01648FF
:100500007844314600F02EF806E0122078703878F2
:100510000121014339700026E66054350F497944C2
:100520001422284601F036FB002806D00C487844F7
:10053000294600F017F8009906E01220B8703878C4
:1005400000990843387000250420A07721772561A1
:10055000F8BDC046741E0000631C0000461E00006B
:100560006E1B000070B50C4600F05EFF0026074DC4
:100570007D44142E05D0A15D284600F055FF761C61
:10058000F7E70348784400F04FFF70BDB21A00004F
:10059000051C0000F8B5044600780127062807D19D
:1005A00020699D2806D83148784400F03DFF002797
:1005B0006770F8BDE5689E21284601F0D5FA6069AC
:1005C00001780906427812045118827812028918BB
:1005D000C078081895350026254979440F2EE7D0B4
:1005E0000A68824202D0091D761CF7E7EE710E2ED2
:1005F000DED8F0B201460939062910D3011F0229BD
:1006000011D3002829D008280BD0022809D00328AC
:1006100005D0062805D0072821D0012817D10327A7
:1006200020E000271EE0A0680168A5311148784449
:100630001422009101F0AEFA0027002812D00E48D3
:1006400078441422009901F0A5FA00280AD00B483A
:100650007844314600F0E8FEA9E7082702E00220CE
:1006600028700527EF700427A2E7C046C4190000D0
:100670008E1C0000EE1C0000F01C0000C11B0000DE
:10068000F8B505468668C268A0487844202100F085
:100690004DF904272F759520305C3246953200289D
:1006A00002D0401E1070F8BD2B460C3334469A34ED
:1006B000A17808460938062818D3081F02281CD339
:1006C00008292CD0012922D0022935D003291ED097
:1006D000062952D0072963D0002900D082E0D178C2
:1006E000082900D184E08A4878447DE0D078082841
:1006F0007ED0032871D1196837E0D078082877D0E8
:10070000012876D0032826D0042840D12BE0D078C9
:1007100008286DD0042826D003285ED11BE0D078AD
:10072000082865D0012800D188E0032813D00428C8
:1007300019D005282BD149E0D078082858D00328B3
:1007400009D004280FD0002847D128463146144646
:1007500000F006F952E0196814462022304601F0F4
:1007600009FAE770F8BD1968203614462022304691
:1007700001F000FA0820E070F8BDD078082837D0E2
:100780001C4601283CD0032854D0042854D000280B
:1007900023D128463146144600F0E2F80120EAE76A
:1007A000D078002855D001286AD0022879D000924C
:1007B000032800D182E0042800D187E00828009AAD
:1007C00016D0062800D18BE0052806D128463146F0
:1007D000144600F099F9032036E04E48784400F0C2
:1007E00023FE03E05048784400F01EFE00202875E8
:1007F000F8BD28463146144600F01CF90320BAE73C
:10080000117945487844174600F00EFE387900907B
:10081000401C387120680C3040497944142201F0A2
:10082000B9F900286AD02846314600F003F90120C2
:10083000F870F8BD21688FE7216895E728463146B2
:10084000144600F0F7F80520E0702078401C207076
:10085000F8BD196840361425304617462A4601F07F
:1008600089F9304878442946324600F05FF8012083
:10087000F87020881438C10E40184009401E43E02B
:1008800020881438C10E411814461F229143401A83
:100890001968091854361422304601F06BF9022009
:1008A00069E720881438C10E411814461F2291436D
:1008B000421AB01A0C3A7430196859E719682022A4
:1008C000304601F057F90098C770F8BD1968203616
:1008D0002022304601F04EF906200099C870F8BD7C
:1008E0001868C17F807F00024018208081B20C48C8
:1008F0007844144600F098FD00203CE7032038526D
:1009000038780099401A13303870F8BD2819000063
:10091000D2190000F81700007B1800004A1B0000E5
:100920007517000092180000461A000070B51446B2
:100930000D4600F079FD084E7E44002D06D021784A
:10094000304600F071FD641C6D1EF6E703487844E4
:1009500000F06AFD70BDC046EA1600003B180000BA
:1009600070B50E4605460C4640341421204601F071
:10097000FBF89C20305CFE21014004291FD16868EF
:100980000668A536214878441422314601F002F960
:10099000002821D0204878441422314601F0FAF88A
:1009A000002812D1E868C07F032826D0012827D06C
:1009B000022828D0002818D11849794401E0E968B4
:1009C0000C311422204601F0D5F81948784414213E
:1009D0002246FFF7ABFF70BDE868C07F012809D051
:1009E000002802D10A497944EBE71048784400F026
:1009F0001BFDEAE707497944E3E70B497944E0E75F
:100A000007497944DDE707497944DAE79619000098
:100A10007E190000AE1800009A190000FE180000B0
:100A2000CA180000D8180000F8180000E8150000E7
:100A30001D16000070B50E4605460C4654341421B0
:100A4000204601F091F89C20305CFE2101400429F1
:100A50001FD168680668A5362148784414223146BB
:100A600001F098F8002821D020487844142231461B
:100A700001F090F8002812D1E868C07F032826D042
:100A8000012827D0022828D0002818D118497944F5
:100A900001E0E9680C311422204601F06BF8194896
:100AA000784414212246FFF741FF70BDE868C07FFB
:100AB000012809D0002802D10A497944EBE71048FF
:100AC000784400F0B1FCEAE707497944E3E70B49D1
:100AD0007944E0E707497944DDE707497944DAE7F3
:100AE000C2180000AA180000DA170000C61800009B
:100AF0002A180000F617000004180000241800004F
:100B0000141500009415000070B50C4606466834B4
:100B100014252046294601F027F8F1680C312046BB
:100B20002A4601F027F80348784429462246FFF771
:100B3000FDFE70BD64150000F8B504468568C16807
:100B400002695C48784400F06FFC2E4640365A49F2
:100B500079441422304601F01DF82F4692370028C0
:100B600033D0564979441422304601F013F8002856
:100B70002BD0534979441422304601F00BF8002859
:100B800023D0504979441422304601F003F800285C
:100B900068D04D4979441422304600F0FBFF00280C
:100BA00060D04A4979441422304600F0F3FF00280F
:100BB0000BD0E168002959D0C87F787028467C3076
:100BC00014310B2201F062F901E0122078703878BC
:100BD0000121014339702E4654363E49794414228E
:100BE000304600F0D7FF002833D03B497944142227
:100BF000304600F0CFFF00282BD03849794414222A
:100C0000304600F0C7FF002823D03549794414222C
:100C1000304600F0BFFF002826D032497944142224
:100C2000304600F0B7FF00281ED02F497944142227
:100C3000304600F0AFFF00280BD02169002922D0F8
:100C4000C87FB870873514310B22284601F01EF991
:100C500001E01220B8703878022101433970042075
:100C60006075F8BD0620B1E70620F3E71220787022
:100C700028467C30164979440B2201F007F9207D83
:100C8000401C2075A7E71220B8708735B87A032872
:100C900006D1164979440B22284601F0F7F8DEE721
:100CA000134979440B22284601F0F0F8207D401CBE
:100CB0002075D4E7B2140000541700005417000048
:100CC000581700005C17000060170000C0170000F4
:100CD00047150000C8160000CC160000D016000012
:100CE000D4160000D8160000381700006F15000059
:100CF0001B150000B0B504468568C068226910491C
:100D0000794401F0C3F89C20295C081F0B2802D20B
:100D10000F49794407E0032902D20A49794402E0E5
:100D200008D1094979446069A26901F0AFF804204B
:100D30002077B0BD0548784400F076FB0020F7E747
:100D40004A13000001130000321300008814000051
:100D500015130000F0B587B00446C669406AA16A61
:100D600000F002FFE06A216B00F0FEFE2146203118
:100D700004200691087520210391675C9221725C22
:100D8000032513462B40314692310491042F0596DA
:100D900021D002261146314001200240012F22D0ED
:100DA000022F32D0032F35D0002F00D087E05D42D4
:100DB0005D41DB1E584258412843551EAA4102435B
:100DC0005D1EAB41002800D05800002A00D13046FB
:100DD000002A17D023E0032B00D00320032B1ED0C2
:100DE000002B1CD06BE05D425D41DB1E5842584138
:100DF000054300D10220531E9A41154300D12846D5
:100E0000002D0CD100295AD009E0032B5FD0002B14
:100E100075D1B1E0002B00D02846032B4FD003281A
:100E200055D001286BD0022800D1A5E0002846D17A
:100E3000059D2E464036FA4979441422304600F08A
:100E4000A9FE002800D1B3E02F46F64979441422C8
:100E5000304600F09FFE002800D1B8E0F249794406
:100E60001422304600F096FE002800D1BBE03D463B
:100E70003E465436ED4979441422304600F08AFE4D
:100E8000002800D145E1EA4979441422304600F0B7
:100E900081FE002800D141E1FC497944142230460A
:100EA00000F078FE00283E46049D00D03FE1304629
:100EB0007C30F84979440B2200F0E8FF37E1F6482E
:100EC000784400F0B1FA002006990875DCE1606A08
:100ED000A26AEF49794400F0D9FFE06A302101703D
:100EE000E06A7821417020680268E36A002100917D
:100EF000019105986830991CFFF7EEF8C4E1059D53
:100F00002E465436F94979441422304600F042FE08
:100F100000283ED0F64979441422304600F03AFECB
:100F200000283FD0F44979441422304600F032FEC4
:100F3000002846D0F24979441422304600F02AFEB7
:100F400000284AD0F04979441422304600F022FEAD
:100F500000284ED0EE4979441422304600F01AFEA3
:100F600000282E46049D4DD130468730E94979440A
:100F70000B2200F08BFF45E0606AA26AC749794402
:100F800000F084FFE06A226BC549794400F07EFFDF
:100F90007AE128468730214610310B2200F076FF97
:100FA0002E462EE02E4628468730D249794425E049
:100FB00028467C30214610310B2200F067FF2E4678
:100FC000B4E02E4628468730CC49794416E03E46A8
:100FD00038467C30B3497944A5E02E462846873010
:100FE000C84979440AE03E4638467C30AE497944E7
:100FF00099E02E4628468730C44979440B2200F0F8
:1010000045FF049D03986871606AA26AC2497944E9
:1010100000F03CFFA97A081F052800D20FE1481E06
:1010200002282CD30E293DD0032946D009291BD0F4
:101030000A2953D00B2917D00C295AD00D2913D0C7
:10104000002900D0ADE06068016862254A5D304645
:101050002030423100F08EFD60680068405D049DE4
:101060006871304687301AE0304620302022314601
:1010700000F080FD30468730AF49794443E0606836
:101080000168A531A5487844142200F083FD01468B
:1010900030468730002902D0A3497944CCE0A049EA
:1010A0007944C9E0304620302022314600F062FD0C
:1010B00030468730A349794425E060680168A5314E
:1010C0009A487844142200F065FD01463046873086
:1010D000002900D1AEE097497944ADE03046203098
:1010E0002022314600F046FD30468730934979444E
:1010F00009E0304620302022314600F03BFD3046EA
:1011000087308F4979440B2200F0C0FE1220A8706E
:1011100095E028467C30654979444DE73E4638469F
:101120007C30634979440B2200F0B0FE049D0398A3
:101130006871606AA26A5F49794400F0A7FEA97AE3
:10114000081F052800D28FE00E2925D001292DD0B7
:10115000022936D0032939D009294DD00A291BD0BC
:101160000B294ED00C2917D00D294FD0002918D1AA
:10117000606AA26A5049794400F088FE606801689C
:1011800062254A5D4231304600F0F4FC6068006838
:10119000405D049D687167E030467C305049794479
:1011A00038E06948784400F03FF98CE6606AA26A4A
:1011B0004249794400F06AFE30467C304049794427
:1011C0004FE0606AA26A474979444BE0606AA26ACC
:1011D0003C49794400F05AFE60680168A5313A48FC
:1011E0007844142200F0D6FC014630467C300029B9
:1011F00035D03749794434E030467C30354979443C
:1012000008E030467C303449794403E030467C3095
:10121000324979440B2200F039FE1220687023E035
:101220002C150000581400005A1400005614000039
:10123000581400003E4979440B2200F027FEAA789A
:101240006979E06A236B009001933046203087363D
:101250003346FFF7ECF8E16A3248784412E01B4964
:1012600079440B2200F012FE6A786979E06A236BF8
:101270000090019333467C333046FFF7D8F8E16A9B
:101280001948784400F0D0F807B0F0BD5A140000B7
:10129000A91200002C130000CB1200002C1000003B
:1012A000811100007712000057100000500E00005E
:1012B0004D0F00006D0E000093100000571000004D
:1012C000450F0000840E000028110000ED0F000003
:1012D000510E0000E20F0000600D00005F0E0000E4
:1012E000A70E0000411000002A0F00005E1400004D
:1012F0008E130000A1120000921300007B1000006A
:1013000096130000860F00009A130000771000006B
:101310009E13000072120000C5100000821200002F
:10132000AD110000F80F0000AB0F000046120000E6
:10133000F60D0000850F0000CB0F0000F21000003A
:10134000640E0000BB0F00004110000080B5024693
:1013500083204000824217D081204000824217D073
:10136000FF20034604339A4216D041239B009A4241
:1013700016D0034606339A4216D00230824217D165
:101380000846FFF707F980BD0846FFF7E3FC80BD7C
:101390000846FFF775F980BD0846FFF78FF880BD56
:1013A0000846FFF7C9FB80BD0846FFF7A3FC80BDD8
:1013B00002487844114600F037F880BD9B0D0000CC
:1013C000F8B505487844019001200390000202908E
:1013D00001A800F0B9F98FBDB20C000080B5002063
:1013E00000F0E4F980BDD4D4044672460448784441
:1013F000214600F019F800F0D1F9214600F004FD73
:101400003C0D0000BCB50C46054601A881705F216B
:101410000170210A4170032100F0B6F9A1B22846FB
:1014200000F0B2F9BCBDD4D483B0F0B58EB013AC2B
:101430000EC4002800D163E1074613A808900120DC
:1014400003903878002800D15AE13C460025002856
:1014500005D0252803D0601940786D1CF7E7204699
:101460002946FFF7CFFF6719605D2528E9D160198C
:10147000471C0024202607942246104639787F1CFA
:1014800000222D29F9D00A46303A0A2A16D32529F6
:1014900044D02A2904971ED02E2927D138782A280B
:1014A0007DD104984078482803D0732801D068285B
:1014B00075D1049F7F1C0122089812E030220B4650
:1014C0005340234300D032460A2363435C18303C28
:1014D00016460246D1E73878732860D10222089870
:1014E000049F011D089100680790C6E7482917D09E
:1014F00058291AD0632925D064292DD0834A7A44EB
:101500000692682937D0702905D0732936D07529FD
:1015100049D0782943D10196002008E0781E17E0D1
:1015200005947B497944069126E0019601200090BC
:10153000039F0898011D0891006805900D901020E8
:1015400006903CE00898011D089100680D900DA8D8
:101550000121FFF757FF74E70898011D0891006803
:101560000D900A2100280196069100D5B7E005905C
:101570000020009022E00594039901E005940021E9
:10158000089A131D0893C0B21768002874D0012868
:1015900079D0022878D13878002800D1A6E06148B7
:1015A0007844052164E001960898011D08910068BF
:1015B00005900D90002000900A200690039F394668
:1015C0005648784407900291C8193840261A751E6B
:1015D0000024069821463A46234600F09FF94A1E09
:1015E0009141059A904205D8002903D16D1E761EBF
:1015F0000746EDE7029800280398019A09D1D1B275
:1016000000203029044604D109A82D2101700124AD
:101610000398B11E0D2907D8069E002D05D009A9F3
:101620000A556D1E641CF8E7069E0028059D03D12F
:1016300009A82D210155641C0098002814D13848B0
:101640007844079010E02846394600F0BBF8314650
:1016500000F03EF90798405C09A908553846314624
:1016600000F0B0F80746641C002FECD109A8214611
:10167000FFF7C8FE049FE4E600203A5C401C002A05
:10168000FBD1451E00E0079D002914D0002DF1D0AC
:101690003E783009069C2018079501252946FFF75A
:1016A000B1FE0F20304020182946079DFFF7AAFE03
:1016B0007F1C6D1EEAE738462946FFF7A3FE049F0C
:1016C0000598A84200D8BCE62C1A002C00D1B8E638
:1016D000114878440121FFF795FE641CF5E740426C
:1016E00005900D9000210091039F69E70798441C25
:1016F000084878440121FFF785FE641EF8D1DEE733
:101700000EB0F0BC01BC03B00047C046460E00005E
:10171000300E0000E008000000090000920D0000FB
:10172000040D0000A40B000001DF002900D1704768
:101730000846FFF759FEE0B5002001900090012017
:101740006946FFF7F1FF8CBDE0B5002101910090E3
:1017500002486946FFF7E8FF8CBDC04667000001FC
:1017600082B00020019068206946FFF7DDFFFFDEB0
:1017700082B000210191009002486946FFF7D4FF32
:10178000FFDEC0469A000001E0B5019100900248DA
:101790006946FFF7C9FF8CBD83000002E0B5002059
:1017A000019087206946FFF7BFFF8CBDE0B500219F
:1017B0000191009002486946FFF7B6FF8CBDC04614
:1017C0000B010001002243088B4274D303098B42B2
:1017D0005FD3030A8B4244D3030B8B4228D3030C01
:1017E0008B420DD3FF22090212BA030C8B4202D3A3
:1017F0001212090265D0030B8B4219D300E0090ACB
:10180000C30B8B4201D3CB03C01A5241830B8B42D3
:1018100001D38B03C01A5241430B8B4201D34B03BC
:10182000C01A5241030B8B4201D30B03C01A524121
:10183000C30A8B4201D3CB02C01A5241830A8B42A6
:1018400001D38B02C01A5241430A8B4201D34B028F
:10185000C01A5241030A8B4201D30B02C01A5241F3
:10186000CDD2C3098B4201D3CB01C01A52418309A7
:101870008B4201D38B01C01A524143098B4201D3E1
:101880004B01C01A524103098B4201D30B01C01A0C
:101890005241C3088B4201D3CB00C01A5241830886
:1018A0008B4201D38B00C01A524143088B4201D3B3
:1018B0004B00C01A5241411A00D201465241104613
:1018C0007047FFE701B5002000F006F802BDC046F2
:1018D0000029F7D076E770477047C046002B11D13A
:1018E000002A0FD1002900D1002802D00021C943CD
:1018F000081C07B4024802A14018029003BDC0466C
:10190000D9FFFFFF03B4684601B5029800F030F834
:10191000019B9E4602B00CBC7047C046F0B5CE4657
:10192000474615042D0C2E0080B50704140C3F0CFF
:101930009946030C7E435D43674363437F19340C30
:10194000E4199C46A54203D980235B029846C4440F
:101950004B4643435143250C36046544360C24045E
:10196000A4195B19591820000CBC90469946F0BD8B
:10197000F0B557464E464546DE46E0B5040083B016
:101980000D00924699468B4230D82DD0494650469C
:1019900000F0C0F829000600200000F0BBF8331A60
:1019A0009846203B9B4633D45A4653469340424682
:1019B0001F00534693401E00AF423AD8AF4200D1B9
:1019C0007BE05B46A41BBD41002B00DA78E00022DF
:1019D00000230092019301235A469340019301236F
:1019E00042469340009328E08242CFD90022002350
:1019F000009201930C9B002B01D01C605D6000984D
:101A0000019903B03CBC90469946A246AB46F0BD56
:101A1000424620239B1A5246DA40414613004A466A
:101A20008A40170042461F43534693401E00AF4270
:101A3000C4D900220023009201934346002BD9D041
:101A4000FB079C46614672080A437B0846460EE047
:101A5000AB4201D1A2420CD8A41A9D410120241905
:101A60006D410021013E24184D41002E06D0AB42AD
:101A7000EED9013E24196D41002EF8D1009801994C
:101A80005B4600196941002B25DB2B005A46444672
:101A9000D3402A00E2401C005B461500002B2BDBE4
:101AA00026005F46BE40330026004746BE40320057
:101AB000801A9941009001919CE7A342B9D880E730
:101AC0004246202300219B1A00220091019201220C
:101AD000DA40019283E7424620239B1A2A004646B9
:101AE0009A402300F340444613432A00E2401C007E
:101AF0005B461500002BD3DA2023424626009B1AB2
:101B0000DE402F00B4464646B74066463B003343AE
:101B1000CAE7C04610B5002903D100F007F820300D
:101B200002E0081C00F002F810BDC0461C21012391
:101B30001B04984201D3000C10391B0A984201D3B0
:101B4000000A08391B09984201D30009043902A28E
:101B5000105C40187047C0460403020201010101F5
:101B6000000000000000000010B5002200F00AF89C
:101B700010BDC04610B500F035F810BD10B500F02E
:101B800085F810BD130010B50A00190000F0DCF84C
:101B900010BDC04630B5032A0CD903000B439B0788
:101BA0001CD103680C68A34218D1043A04300431F4
:101BB000032AF6D8551E002A0ED002780C789442DB
:101BC0000ED101350123013904E0C25C0133CC5C44
:101BD000A24205D1AB42F8D1002030BD551EECE742
:101BE000101BFAE7F0B5C64600B50F2A43D90B0023
:101BF000032603431E400C000300002E40D11500B5
:101C0000103D2D09AC462D01A846804400E03B0064
:101C1000676825685F60E7681D60DF601F00A56872
:101C200010379D6010344345F1D165460F230C24D5
:101C300001352D01491913404519144223D08C59FF
:101C4000AC5104369C1B032CF9D80324043B9B089D
:101C500001339B002240ED18C918561E002A07D0F8
:101C6000002300E02300CA5C5C1CEA549E42F9D1C8
:101C700004BC9046F0BD0500561E002AF0D1F7E7DF
:101C8000561E0500ECE71A00F6E7C046F0B5C6465A
:101C900000B588420CD98B18984209D2531E002AED
:101CA00003D0CA5CC254013BFBD204BC9046F0BDD9
:101CB0000F2A0CD80500561E002AF6D0002300E09B
:101CC0002300CA5C5C1CEA549E42F9D1EDE70B008C
:101CD000032603431E400C000300002E2ED11500E6
:101CE000103D2D09AC462D01A846804400E02B0094
:101CF0001D00276810351F6067685F60A7689F60D8
:101D0000E7681034DF604345F1D165460F230C24AA
:101D100001352D01491913404519144211D08C5930
:101D2000AC5104369C1B032CF9D80324043B9B08BC
:101D300001339B00ED18C9182240BCE7561E050070
:101D4000BCE71A00B7E7C046F0B5050083074AD0E4
:101D5000541E002A44D0CEB20300032202E0013513
:101D6000013C3DD301332E701342F8D1032C2FD9FF
:101D7000FF220A40150215432A0415430F2C35D9BA
:101D80002700103F3F093E01B4461E001A001036DE
:101D90006644156055609560D5601032B242F8D146
:101DA0000F260C2201373F012640DB193700224263
:101DB00017D03E1FB608B400A4461A001C1D644488
:101DC00020C2A242FCD103240136B6009B193C403C
:101DD000002C05D0C9B21C19197001339C42FBD1EB
:101DE000F0BD3400F4E714000300BFE72700E0E78C
:101DF000F0C041464A4653465C466D4676467EC034
:101E00002838F0C80020704710307CC890469946AA
:101E1000A246AB46B54608C82838F0C8081C00D111
:101E20000120184770B5002A2AD00378002B29D04A
:101E30008418030002E01D78002D18D00133A3425E
:101E4000F9D1261A921B16D00D780B00002D0AD05E
:101E5000012A02D02570013A013401331D78002D8A
:101E6000F6D15B1AF61800232370300070BD1C00F9
:101E7000261A921BE8D1080000F02EF83618F4E775
:101E80000026F8E704000026DEE7C046F0B5002A89
:101E900013D0013A002A19D000234F1C461C02E03F
:101EA00001339A4216D0F518AC46CD5CFC18C554E7
:101EB000002DF5D1601A0138F0BD0C00230001336C
:101EC0005A1E12781C00002AF9D1F3E70C000023F7
:101ED0000370F3E76046FAE710B5830727D003786D
:101EE000002B26D00300032102E01A78002A1CD020
:101EF00001330B42F9D119680F4A104C8A188A43F2
:101F000022420FD1043319680B4A8A188A432242AD
:101F100008D104331968084A8A188A432242F1D04A
:101F200000E001331A78002AFBD1181A10BD030013
:101F3000E1E70020FAE7C046FFFEFEFE80808080D9
:101F400010B500290BD00378002B0CD044180300E7
:101F500002E01A78002A04D00133A342F9D1080024
:101F600010BD191AFBE70021F9E7C04644414900BA
:101F7000506C7567696E20706172616D6574657211
:101F8000732073747275637475726520697320624F
:101F90006967676572207468616E20616C6C6F7729
:101FA00065642073697A650A0053656E6400574161
:101FB000524E494E47006F65746820706C756769B2
:101FC0006E2070726F7669646520706172616D65F4
:101FD0007465723A20002000506172616D206E6F4E
:101FE0007420737570706F727465640A00544F4B7F
:101FF000454E2053454E543A20004F4554482070DA
:102000006C7567696E2070726F7669646520746F95
:102010006B656E3A20307825702C20307825700A58
:10202000004D696E7400253032780053776170007E
:102030004C5354204D495800544F4B454E20524567
:102040004345495645443A20004F555344004F728A
:102050006967696E20446546690052656465656D0F
:1020600000555344204D4958004F46465345543A75
:102070002025640A00555344430045746865726521
:10208000756D00436F756E7465723A2025640A00A1
:1020900042454E45464943494152593A2000300095
:1020A00053657474696E672061646472657373202C
:1020B000726563656976656420746F3A20005061CB
:1020C00072616D206E6F7420737570706F727465BD
:1020D000643A2025640A0052656365697665204D7F
:1020E000696E00457863657074696F6E203078257D
:1020F00078206361756768740A00544F4B454E5FE2
:1021000053454E543A200073667278455448005542
:102110006E6B6E6F776E20746F6B656E0030313250
:102120003334353637383961626364656600657803
:1021300063657074696F6E5B25645D3A204C523D37
:102140003078253038580A004552524F52003078C6
:1021500000556E68616E646C6564206D65737361B3
:1021600067652025640A0053657474696E67206191
:102170006464726573732073656E7420746F3A20A3
:102180000042656E6566696369617279000A005292
:102190006563656976656420616E20696E76616C41
:1021A00069642073637265656E496E6465780A00C0
:1021B000414D4F554E542053454E543A2025730AF5
:1021C000000053656C6563746F7220496E646578B6
:1021D000203A2564206E6F7420737570706F72746E
:1021E00065640A005553445400556E68616E646C12
:1021F00065642073656C6563746F7220496E6465F5
:10220000783A2025640A00554E49545300446570BD
:102210006F736974004D697373696E672073656CC1
:102220006563746F72496E6465783A2025640A00AC
:1022300053656C6563746F7220496E646578202500
:1022400064206E6F7420737570706F727465640AA9
:10225000004F45544800414D4F554E542052454380
:1022600045495645443A2025730A00D4B00DE3D0C1
:102270007DE943D4F6296E157323BC7C2421F03DFF
:10228000D67E41A624A43C35598D4BC089F34B41E1
:10229000960BAA35539093CB46C781590F5A098A9A
:1022A000FD1FC1BF6981B6C6856C4EFB76C1D1AE3C
:1022B00002E20CEB03A2A6A08B0B8DC32A8E1E6735
:1022C0006EC238D8A992307B495B45B3FEAA5E86C0
:1022D0006B175474E89094C44DA98B954EEDEAC4E5
:1022E00095271D0FA0B86991C6218B36C1D19D4A93
:1022F0002E9EB0CE3606EB48DAC17F958D2EE523B3
:10230000A2206206994597C13D831EC739254033F7
:10231000945AA2E4809CC2977E7087BEE48BD7ABB0
:1023200094B17476A93B3262D87B9A326965D1E95F
:102330001F9C13E787650D7BBFC3A9F10587D7777E
:102340008206671719D9910D30313233343536375B
:10235000383961626364656630313233343536371B
:102360003839414243444546000000000000000067
:10237000000000000000000000000000D4D4D4D40D
:10238000D4D4D4D4D4D4D4D4D4D4D4D4D4D4D4D40D
:10239000D4D4D4D4D4D4D4D4D4D4D4D4D4D4D4D4FD
:1023A000D4D4D4D4D4D4D4D4D4D4D4D4D4D4D4D4ED
:1023B000D4D4D4D4D4D4D4D4D4D4D4D4D4D4D4D4DD
:1023C000D4D4D4D4D4D4D4D4D4D4D4D4D4D4D4D4CD
:1023D000D4D4D4D4D4D4D4D4D4D4D4D4D4D4D4D4BD
:1023E000D4D4D4D4D4D4D4D4D4D4D4D4D4D4D4D4AD
:1023F000D4D4D4D4D4D4D4D4D4D4D4D4D4D4D4D49D
:04000005C0DE000158
:00000001FF
